:1000000000800020BD010000F13F0000BD3F000066
:10001000BD3F0000BD3F0000BD3F0000BD3F0000F0
:10002000BD3F0000BD3F0000BD3F0000F13F0000AC
:10003000F13F0000BD3F0000F13F0000AD3F000078
:10004000F13F0000F13F0000F13F0000F13F0000F0
:10005000F13F0000F13F0000F13F0000F13F0000E0
:10006000F13F0000F13F0000F13F0000F13F0000D0
:10007000F13F0000F13F0000F13F0000F13F0000C0
:10008000F13F0000F13F0000F13F0000F13F0000B0
:10009000F13F0000F13F0000F13F0000F13F0000A0
:1000A000F13F0000F13F0000F13F0000F13F000090
:1000B000F13F0000F13F0000F13F0000F13F000080
:1000C000F13F0000F13F0000F13F0000F13F000070
:1000D000F13F0000F13F0000F13F0000F13F000060
:1000E000F13F0000F13F0000F13F0000F13F000050
:1000F000F13F0000FD430000F13F00009D4800007B
:10010000F13F0000694C0000F13F0000F13F0000AA
:10011000F13F0000F13F0000F13F0000F13F00001F
:10012000F13F0000F13F0000F13F0000F13F00000F
:10013000F13F0000F13F0000F13F0000F13F0000FF
:10014000F13F0000F13F0000F13F0000F13F0000EF
:10015000F13F0000F13F0000F13F0000F13F0000DF
:10016000F13F0000B1330000F13F0000F13F00001B
:10017000F13F0000F13F0000F13F0000F13F0000BF
:10018000F13F0000F13F0000F13F0000F13F0000AF
:10019000F13F0000F13F0000F13F0000F13F00009F
:1001A000F13F0000F13F0000F13F0000F13F00008F
:1001B000F13F0000F13F0000F13F0000564B4CF2D0
:1001C000205210B51A804DF628121A8000BF00BFC9
:1001D00003F012FF514B4FF010621A60504A9A60C0
:1001E000504ADA60A3F53043203B1A6812F480725B
:1001F00004D14D490A604FF4A8521A604B4B1A784B
:10020000110703D51A7842F008021A70484B2A22C7
:100210001A700023474A48499818884204D247492F
:10022000595899500433F5E7454A464B9A424FF0E6
:10023000000302D242F8043BF7E74349434A5958C6
:1002400099500433B3F5DE7FF7D1414B802103F899
:10025000011B40498B42F9D13F4B1A603F4B0A22A8
:100260001A70A3F6FF7324221A70A02203F8012C3F
:100270003B4B1A789207FBD51A78D406FCD41A782F
:1002800002F00C02082AFAD1364B03221A704022DF
:100290005A70334B1A789006FBD51A785106FCD564
:1002A000314B324A1A6002225A60314B20221A70B6
:1002B0002B4B1B7803F00C030C2BF9D12D4B2E4A42
:1002C0001A602E4B2E4A1A60072243F8042C2D4A3E
:1002D000C3F80C2D62B602F053FF134B1B68DA070C
:1002E00005D5294802F0CEFE284B294A1A60294B31
:1002F0001B785B0609D5254C254A2368934204D117
:10030000214802F0BFFE0023236005F0B5FD03F095
:1003100079FE03F0D9FCFEE70E2005403080044052
:10032000823F04000100002B14D0034002D007409C
:1003300000E007406087FF1F7888FF1F906800007B
:100340007888FF1FD091FF1F000000000082FF1F70
:1003500000E400E05FE400E008ED00E0005006404B
:10036000064006400440064044800440000003016B
:100370000040064004800440C010050014E000E086
:10038000FF7601000000202000DD68501CE00340E3
:10039000A5C3945A00F00740FFFFFFFFFFFFFFFFD8
:1003A000FFFFFFFFFFFFFFFFFFFFFFFFFFFFFFFF5D
:1003B000FFFFFFFFFFFFFFFFFFFFFFFFFFFFFFFF4D
:1003C000FFFFFFFFFFFFFFFFFFFFFFFFFFFFFFFF3D
:1003D000FFFFFFFFFFFFFFFFFFFFFFFFFFFFFFFF2D
:1003E000FFFFFFFFFFFFFFFFFFFFFFFFFFFFFFFF1D
:1003F000FFFFFFFFFFFFFFFFFFFFFFFFFFFFFFFF0D
:10040000FFFFFFFFFFFFFFFFFFFFFFFFFEFFFFFFFD
:1004100010B5054C237833B9044B13B10448AFF33E
:1004200000800123237010BD7888FF1F00000000AA
:100430009068000008B5064B1BB106480649AFF3AB
:1004400000800648036813B1054B03B1984708BD07
:1004500000000000906800007C88FF1F7888FF1F64
:100460000000000001600271704710B50168027958
:100470008B188A5C52B11A46144612F8011B2029C7
:1004800006D051B1017901310171F5E7104610BD77
:1004900002790132027100222270184610BD083024
:1004A00001F0FABF00F58C6001F064BB00F58C60D0
:1004B00001F0E5BB00F58C6001F0A2BB00F58C609B
:1004C00001F063BC07B502AB012203F8011D08303F
:1004D000194601F0E1FF03B05DF804FB38B50446AE
:1004E00008460D4602F0A8FD236802465B682046D8
:1004F0002946984738BD08B5FFF7F0FF08BDD2B2CE
:10050000002303F0F9BB38B50446FFF7E7FF0546C3
:10051000204603F0E1FB284438BD38B50446FFF718
:10052000DDFF0546204603F0D7FB284438BD2DE902
:10053000F041074606460C46904600200025631E03
:100540009D4206DA716846F8041B05F039FA013558
:10055000F5E704F18043013B414647F8238005F06D
:100560002FFA0546204605F0DFFA0146284605F039
:10057000E3FBBDE8F081FFFF10B57A497A48FFF749
:10058000BAFF7A497848FFF7B6FF77487849FFF70E
:10059000BAFF784B1A68012A1C4617D17149724874
:1005A000FFF7A9FF74497048FFF7A5FF73496E482C
:1005B000FFF7A1FF72496C48FFF79DFF71496A4838
:1005C000FFF799FF68486A49FFF79DFF2368BBB9A9
:1005D00064496548FFF78FFF67496348FFF78BFF62
:1005E00066496148FFF787FF65495F48FFF783FF6A
:1005F00065495D48FFF77FFF5B485D49FFF783FF73
:1006000058495948FFF777FF5B495748FFF773FF91
:100610005E495548FFF76FFF59495348FFF76BFF95
:100620005B4B514819684FF47A7391FBF3F103F077
:100630009BFB53494C48FFF75EFF56494A48FFF77A
:100640005AFF49484A49FFF75EFF534B1A68012A8F
:100650001C4624D143494448FFF74DFF46494248D0
:10066000FFF749FF4D494048FFF745FF44493E48E1
:10067000FFF741FF4A493C48FFF73DFF40493A48F0
:10068000FFF739FF47493848FFF735FF464B3648F3
:10069000196803F069FB34483549FFF734FF2368D4
:1006A0003BBB30493048FFF726FF30492E48FFF763
:1006B00022FF3A492C48FFF71EFF2D492A48FFF731
:1006C00022FF28492848FFF716FF2B492648FFF745
:1006D00012FF32492448FFF70EFF29492248FFF74D
:1006E0000AFF32492048FFF706FF1F482049FFF75D
:1006F0000AFF2F4B1A68012A1C4617D119491A48BC
:10070000FFF7F9FE1C491848FFF7F5FE294916487E
:10071000FFF7F1FE1A491448FFF7EDFE2049124891
:10072000FFF7E9FE10481249FFF7EDFE2368BBB959
:100730000C490D48FFF7DFFE0F490B48FFF7DBFEC2
:100740001C490948FFF7D7FE0D490748FFF7D3FEBC
:1007500016490548FFF7CFFE03480549FFF7D3FECA
:1007600010BD00BF406000000890FF1F4760000000
:100770004F6000006487FF1F516000005760000059
:100780004D600000636000006E6000007660000055
:100790006887FF1F82600000788AFF1F31610000B8
:1007A000C16200008A6000007C8AFF1FCD620000E9
:1007B0003C8AFF1F9260000008B505480549FFF715
:1007C0008DFE054B00221A60BDE80840FFF7D4BE3D
:1007D0000890FF1F9D6000006487FF1F08B5054853
:1007E0000549FFF77BFE054B01221A60BDE8084072
:1007F000FFF7C2BE0890FF1FB36000006487FF1FB1
:1008000008B5FFF732FE20B906490748FFF785FE15
:1008100008BD05F02DFB054B1860BDE80840FFF74B
:10082000ABBE00BFC96000000890FF1F6887FF1FB4
:1008300010B5FFF71AFE04460A481CB90A49FFF72B
:100840006CFE10BD0949FFF768FE204605F010FB5D
:10085000074B1860074B0122BDE810401A60FFF7F4
:100860008BBE00BF0890FF1FE86000001061000011
:100870007C8AFF1F788AFF1F08B505480549FFF7E6
:100880004CFE054B00221A60BDE80840FFF774BE1D
:100890000890FF1F25610000788AFF1F08B50548F2
:1008A0000549FFF73AFE054B00221A60BDE80840F3
:1008B000FFF762BE0890FF1F3B6100003C8AFF1FEC
:1008C00038B51D491D48FFF728FE1D480A2200F1D2
:1008D0000C01042301F0B0F840B31A4801F088FD80
:1008E0000121194802F091FA014640B1164C04F278
:1008F0003C452846214601F0CEFBB8B105E0124840
:1009000002F083FA0028F1D110E094F83C3413F09F
:10091000700F0BD00D4B1D600D4B01221A600D4B5B
:1009200000221A60BDE83840FFF726BE0A49034896
:10093000FFF7F3FD38BD00BF4F6100000890FF1FB7
:10094000F88EFF1FD48EFF1F988AFF1F088FFF1F8E
:100950003C8AFF1F0489FF1F6261000038B505460D
:1009600000242B5D0F2B03D806480749FFF7C3FD72
:10097000295D044810220134FFF7C1FD082CF0D195
:1009800038BD00BF0890FF1F2362000010B57549F5
:100990007548FFF7B8FD754B0121187802F0A2FBEE
:1009A000734800F0A2FC73496F48FFF7A4FD724939
:1009B0006D48FFF7A0FD6E4800F092FB0A22014649
:1009C0006948FFF79CFD6D496748FFF79CFD664845
:1009D0006B49FFF790FD664800F086FD10B1624854
:1009E000684901E060486849FFF78DFD6048674944
:1009F000002200F082FB18B95B486549FFF783FDD0
:100A00005B486449012200F078FB18B956486249F6
:100A1000FFF779FD61495448FFF76DFD5B48FFF72B
:100A20009DFF514803F058F95D494F48FFF763FDBA
:100A30005848FFF793FF4C4803F04EF953494C4890
:100A40000C2200F00BFC0C225249494800F006FC35
:100A500054494548FFF74FFD4C49454800F020FCFC
:100A60000A2201464048FFF74AFD3F4803F034F9A7
:100A70004D493D48FFF73FFD46493D4800F010FC19
:100A80000A2201463848FFF73AFD374803F024F9B7
:100A9000464B93F85020092A09D803EBC201444879
:100AA0004860444943F83210013283F8502093F8EB
:100AB00050203E49092A09D801EBC2003E4C44604F
:100AC0003E4841F83200013281F8502093F850201E
:100AD0003649092A09D801EBC200394C446039482B
:100AE00041F83200013281F8502093F850202F490C
:100AF000092A09D801EBC200334C4460334841F85D
:100B00003200013281F8502093F850202749092AF9
:100B100009D801EBC2002E4C44602E4841F8320047
:100B2000013281F8502093F850202049092A09D831
:100B300001EBC200284C4460284841F832000132E1
:100B400081F8502093F85030184A092B09D802EB4D
:100B5000C30123484860234942F83310013382F827
:100B6000503010BD9D6100000890FF1F6087FF1F7F
:100B70005C8AFF1FC8610000DC610000E3610000C7
:100B8000ED610000C1620000CD6200000889FF1F16
:100B900001620000548AFF1F2562000049620000C4
:100BA0005C6200006F620000856200008889FF1FA0
:100BB000B90700009B620000DD070000A46200008E
:100BC00001080000AD62000031080000B8620000BA
:100BD00079080000C46200009D080000D162000096
:100BE000C1080000DC6200002DE9F34704460E4610
:100BF0009DF828909DF82C7013499DF8308015467B
:100C00009A4600F0A6FC3146E068FFF774FC4A46BD
:100C10003B4620465146CDF8008000F0D1FCE0680C
:100C20000A49FFF75BFC284604F066FB0B460221ED
:100C300002460091E06803F09FF8204602B0BDE84C
:100C4000F04700F0A8BC00BFE6620000546000005E
:100C50002DE9F34190F8507000F10803014603EBD1
:100C6000C707BB42A3F108061DD053F808CC01F119
:100C7000590800201CF8004018F80050821CAC42B3
:100C8000D2B20AD10130002CF4D168465831FFF7B6
:100C9000E9FB73686846984708E014B915F0DF0F60
:100CA000F3D00833DDE74B6D03B1984702B0BDE8E0
:100CB000F081FFFF2DE9F04F85B002F031FF0028F1
:100CC0003CDD7A4CD4F880000368DB68984794F8E0
:100CD0007D20C0B2904207D1002384F87C300123EC
:100CE00084F85800A367E8E794F87E30834214D173
:100CF000A36F002BE1D094F858109142DDD194F805
:100D00007C50002DD9D12344204683F85850FFF75A
:100D10009FFFA56784F87C50CFE794F87C30002BC8
:100D2000CBD1A26F531C1C2B2244A36794BF00237A
:100D3000012382F8580084F87C30BEE75C4C5D4D9E
:100D400022682B68D31A5C4A1268934240F24F81A2
:100D50005A4E5B4F3078DFF8C081012102F0A2F9D2
:100D6000584800F02FFB5849564800F0A9FB38605E
:100D700000F0BEFB5549564B086002461868012832
:100D8000B9468B469A460CD1524B1B68012B08D1B1
:100D9000514B52481968FFF7CAFB514BC8F8000085
:100DA0001860DAF80030012B0DD14A4B1B6853B99B
:100DB000494B4A481968D9F80020FFF7B8FB484B5F
:100DC000C8F800001860DAF800305BB9414B1B68C6
:100DD000012B02D1DBF8003002E01BB9D9F800305A
:100DE000C8F800305F2001236E278DE889003D4957
:100DF000D8F800203C483D4F6223FFF7F5FE3C4900
:100E0000304800F05DFBC9F8000000F071FBDAF833
:100E10000030CBF80000012B02460BD12D4B1B6894
:100E2000012B07D12C4B33481968FFF780FB324B5D
:100E300038601860DAF80030012B0CD1254B1B68A4
:100E40004BB9254B2B481968D9F80020FFF76FFBE9
:100E5000294B38601860DAF8003053B91D4B1B6815
:100E6000012B02D1DBF8003002E013B9D9F80030D1
:100E70003B605F2101226E238DE80E001A481F4956
:100E80003A687223FFF7B0FE1D4B1B68012B77D128
:100E90001C4B1D4819681D4A462301F0B0FA002872
:100EA0003CD11B491B48FFF738FBA0E08889FF1F96
:100EB000108FFF1F7489FF1F6887FF1F6087FF1F48
:100EC000388AFF1F5C8AFF1F0889FF1F408AFF1FA7
:100ED000788AFF1F6487FF1F7C8AFF1F1089FF1F0E
:100EE0009888FF1FEB6200007889FF1F9488FF1F1E
:100EF000548AFF1FA088FF1F9C88FF1FF16200001B
:100F00003C8AFF1F088FFF1F148AFF1FF662000034
:100F1000FF6200000890FF1F948AFF1FDFF8009116
:100F20003448D9F8001002F01FFF33493148FFF769
:100F3000E2FAD8F8000004F0DFF94FF0020A0246A6
:100F40000B46CDF800A02B4802F016FF2A4929488D
:100F5000FFF7D1FA294B186804F0CEF9CDF800A0BC
:100F600002460B46234802F007FF224802F0B4FE77
:100F7000234801F03DFAD9F800300133C9F80030B8
:100F800020492148FFF7B7FA20491F48FFF7B3FA75
:100F90001F491D48FFF7AFFA1E491B48FFF7ABFA80
:100FA000D8F8000004F0A8F94FF0020802460B46FA
:100FB000CDF80080144802F0DFFE17491248FFF711
:100FC0009AFA386804F098F9CDF800800B4602468A
:100FD0000D4802F0D1FE11490B48FFF794FAFFF7D4
:100FE000CBFA3078002102F05DF823682B6005B061
:100FF000BDE8F08F0C8AFF1F0A6300009488FF1F72
:10100000148AFF1F116300000890FF1F1B6300007C
:101010002B63000032630000396300004F60000062
:101020000489FF1F70B51C4D1C481D4E00212A4627
:1010300000F07CFA1B4B1922002483F865241A4A1D
:101040001A60DC7183F83C4483F83D4483F86844BB
:10105000164B174A1C725C721C71022130461A60D2
:1010600000F0A6FB3146134800F02CF82A4612483F
:10107000214600F0C7FA114B212283F87D200D2272
:1010800083F87E2083F85040C3F880505C6583F875
:101090007C409C6770BD00BF0890FF1F448AFF1F03
:1010A000808AFF1F988AFF1F306000000C8AFF1F94
:1010B000206000005C8AFF1F7889FF1F8889FF1F5E
:1010C0007047FFFF054A8261002202710270092207
:1010D0004270012281608270C2707047C1100000AE
:1010E0000079704710B508460C46072100F0E8FB70
:1010F000E3791B1A5842584110BDF8B5054680687F
:101100000E46174600F048FB0024A868314600F060
:1011100063FB60B1E3B2BB4205D128463146FFF71D
:10112000E1FF00B1F8BD0134E3B2BB42EDD90020CC
:10113000F8BD70B504460E468068154600F06EFA9C
:10114000A068314600F013FBBE210022A06800F029
:10115000DFFAA06800F0FBFA2870A06800F0F7FA48
:101160006870A06800F0F3FAA870A06800F0EFFAC9
:10117000E870A06800F0EBFA2871A06800F0E7FAC8
:101180006871A06800F0E3FAA871A06800F0DFFAC7
:10119000E871A06800F0DBFA2872A068BDE8704032
:1011A00000F03CBA10B51446FFF7C3FF20460821F3
:1011B00000F086FB237A1B1A5842584110BD70B5C7
:1011C00004460E468068154600F028FAA0683146AD
:1011D00000F0CDFAA0684E21002200F099FAA06834
:1011E000A978002200F094FAA068E978002200F0C3
:1011F0008FFA3378102B04D0A0682979002200F0F0
:1012000087FAA06800F00AFAA0682278482100F066
:101210007FFA237813B10A2001F09EFFA068BDE891
:10122000704000F0FBB938B504460D46806800F008
:10123000F5F9A068294600F09AFAB4210022A068C6
:1012400000F066FAA06800F046FA0546A06800F0D3
:10125000E5F9D5F1010038BF002038BD7FB514464F
:1012600001AA06460D46FFF79DFFB8B12B78102B5B
:1012700013D00B2C07D00C2C03D00A2C05D13F2304
:1012800004E07F2302E05F2300E01F23304629466D
:1012900001AA8DF80830FFF792FF012004B070BD5D
:1012A0001FB50B78102B1CD001AAFFF77BFFC8B12C
:1012B0009DF808303F2B09D002D81F2B11D007E032
:1012C0005F2B0CD07F2B03D10C200BE00A2009E010
:1012D00003F0F003F02B0CBF0C20002002E00B20E9
:1012E00000E0092005B05DF804FB30B5044687B086
:1012F000806800F051FA00232371A06801A900F072
:101300006BFA00B3204601A9FFF7ECFE0028F4D0E9
:10131000237823B9204601A9FFF785FF80B920462D
:1013200001A903AAFFF705FF204601A96578FFF789
:10133000B7FF2379A84238BF284660700133DBE746
:1013400001232370EBE707B030BD1FB501AAFFF7FB
:10135000F0FE9DF80400003018BF012005B05DF8D4
:1013600004FBFFFFF8B504460D4642B92B780A2B63
:101370001BD00B2B1BD0092B1CD15E201CE0C3788B
:10138000002BF3D00378002BF0D10D4B1E681F46C5
:1013900020460021FFF7D9FF0028E7D13A6840F244
:1013A000ED23921B9A42E1D8F2E7BC2004E040F220
:1013B000771001E040F2EE20BDE8F84001F0CCBE2D
:1013C000108FFF1F10B50446806800F027F9A06851
:1013D00000F0DEF9A0682278442100F099F9A378A2
:1013E00033B12046611C0022BDE81040FFF7BABFB0
:1013F00010BDFFFFF8B51646107853780A78222AF8
:1014000040EA03232DD025D8102A51D143F34E00B2
:1014100004F08AFB03F070FF0022274BF77903F0FA
:101420000BFE0446B079381A0D4604F07DFB0646E3
:10143000384604F075FB0146304604F07DFC03F0AD
:101440005BFF02460B462046294603F0F7FD04F0F9
:1014500061FAF8BD282A04D03B2A29D1C20728D432
:1014600010E032793F2A1CD008D81F2A20D143F33C
:10147000CC0004F059FB4FF07C510FE05F2A07D0FD
:101480007F2A15D118B204F04FFB4FF0765105E0DA
:1014900043F34E0004F048FB4FF0785104F098FB02
:1014A000F8BD43F38D0004F03FFB4FF07A51F5E7B0
:1014B000F8BD0248F8BD00BF0000D03F0000C07F6B
:1014C00030B585B001AA05460C46FFF76BFE28B182
:1014D0002846214601AAFFF78DFF00E0014805B02C
:1014E00030BD00BF0000FEC200787047FFFFFFFF65
:1014F00008B503F001FF06A3D3E9002303F050FF72
:101500000022054B03F09AFD04F004FA08BD00BF69
:10151000CDCCCCCCCCCCFC3F00004040AFF3008025
:1015200008B503681B68984708BDFFFF38B50D462E
:101530000446134602492A4600F004F8204638BD06
:101540004063000010B50260002202718160C36038
:1015500010BD38B504460D46C0687B21FFF7E0FF9B
:10156000E068A168FEF7BAFF23683BB13A21E06862
:10157000FFF7D6FFE0682168FEF7B0FFE0687C2146
:10158000FFF7CEFF2946E068FEF7A8FFE0687C2160
:10159000FFF7C6FF38BD10B5C4687D212046FFF7B0
:1015A000BFFF2046BDE8104002F096BB0A22002390
:1015B00002F0A2BB10B50446FFF7C4FF204610BDE1
:1015C00073B51E4600238DF804303A2315468DF876
:1015D00000308DF801109DF818308DF80230044667
:1015E0006946C0688DF80320FEF785FF232D03D0E0
:1015F000E0683146FFF7DAFFE0687C21FFF790FFF3
:1016000002B070BD38B50D460446134602492A465D
:10161000FFF7D0FF204638BD83630000436872B6F1
:10162000002283F8802262B67D20013810F0FF008E
:1016300028D04022013A7FF4FDAF93F80022002A1F
:10164000F3D072B6012283F8002183F8802262B6BB
:101650004FF47052013A7FF4FDAF72B6002283F866
:1016600080224FF40C62013A7FF4FDAF93F8000240
:10167000D0F1010038BF002062B64FF44D53013B5A
:101680007FF4FDAF704711F0010F43684FF0010286
:101690000FD072B64FF4A07183F8002183F8802236
:1016A00001397FF4FDAF83F8802062B64FF4DC632C
:1016B0000DE072B64FF4026183F8002183F88022B6
:1016C00001397FF4FDAF83F8802062B6A023013B8F
:1016D0007FF4FDAF7047436872B6012283F8802221
:1016E00083F800216022013A7FF4FDAF002283F8E5
:1016F00080224FF4A072013A7FF4FDAF93F800020C
:10170000C0B262B64FF4D463013B7FF4FDAF7047C3
:101710002DE9F0410446884617460825012616EAB9
:10172000080F0CBF002101212046FFF7ACFF760017
:10173000013DF6B2F3D147B972B6636883F880729F
:101740006368012283F8002162B6BDE8F081F8B534
:1017500007460825002401263846FFF7BCFF00B1E4
:1017600034437600013DF6B2F6D12046F8BD70B59F
:1017700000220D4655210646FFF7CAFF0024295DC9
:10178000304600220134FFF7C3FF082CF7D170BDAB
:10179000CC210022FFF7BCBF002303748374437481
:1017A0000723C218002111720BB1013BF9E7704702
:1017B00038B504460D460846002101F093FC01238C
:1017C0002370044B53F8353063602046FFF7E4FF85
:1017D000204638BD8C6400002DE9F047857C044626
:1017E0008946002D59D1FFF719FF20B92074A07444
:1017F0006074BDE8F0872A462046F021FFF788FF95
:101800000126A846AA4635462046FFF764FF07464C
:101810002046FFF760FF012F02D1012815D132E0E9
:10182000874204EB080318D1227C954205D21A7A2C
:1018300016420CBF0027012702E014BF0027012732
:101840001FB9082D08D8657406E004EB08030127CA
:101850001A7A32431A7204E0AA461A7A22EA060277
:101860001A72204639467600FFF70DFF013516F053
:10187000FF06EDB204D108F101085FFA88F80126ED
:10188000B8F1070FC0D9402D07D984F810A0BAF1DC
:10189000000F10D10123A3740DE000202074A07468
:1018A00060740023E218127A09F803200133082B30
:1018B000F8D1BDE8F087237A002BEED00120F0E7C5
:1018C00010B500231A46DCB2A14205D0C45C6240C8
:1018D000024C0133A25CF6E7104610BD8C63000099
:1018E00010B504460121007901F0DCFB2068FF21DE
:1018F000BDE8104000F010BB10B504460068A179A7
:1019000000F064FA20790021BDE8104001F0CABB64
:101910001B4B2DE9F0411F6804460E4615469846BC
:10192000206800F09FFAFF28E07109D1D8F8003054
:10193000BAB29BB29B1AB3F5967FF1DD11230BE08F
:10194000FE2801D00F2307E0206831462A4600F028
:101950009DFAE07138B11C2320466371FFF7C0FF88
:101960000020BDE8F081206800F07CFA206800F0DB
:1019700079FA2046FFF7B4FF0120BDE8F08100BFEF
:10198000108FFF1F38B504460D46FFF7B5FF204600
:1019900029464FF40072BDE83840FFF7B9BFFFFF9A
:1019A000F8B50A4B1D6804460F461E46206800F035
:1019B00059FAFF2807D03368AAB29BB29B1ABB42E0
:1019C000F4DB0020F8BD0120F8BD00BF108FFF1F21
:1019D000F7B504460D460192FFF78EFF4FF41671DE
:1019E0002046FFF7DDFF206845F0400100F094FA43
:1019F0000DF107060DF1030716F80119206800F034
:101A00008BFABE42F8D1002D14BF872195212068A2
:101A100000F082FA0C2D02D1206800F023FA002594
:101A2000206800F01FFA0306E07103D50135B5F513
:101A3000807FF5D103B0F0BD2DE9F0410446984612
:101A40004B4E027100230372437101601046012165
:101A5000356801F047FB0121207901F023FB206864
:101A600000F0ACF98021A171206800F0AFF90A27DD
:101A70002068FF21013F00F04FFA17F0FF07F7D170
:101A8000002120460A46FFF7A3FF012808D033684B
:101A9000AAB29BB29B1AB3F5FA6FF1DD01234CE0B9
:101AA000204608214FF4D572FFF792FF052801D197
:101AB00001230BE00427206800F0D4F9013F17F060
:101AC000FF07E071F7D1AA2808D102232372237AF5
:101AD000022B14BF00274FF0804708E03368AAB2FA
:101AE0009BB29B1AB3F5FA6FDADD022325E03721AA
:101AF00000222046FFF76CFF3A4620462921FFF7D7
:101B000067FF024640B13368AAB29BB29B1AB3F595
:101B1000FA6FECDD0A2310E0237A022B07D020466F
:101B2000FFF7DEFE84F806800120BDE8F081204644
:101B30003A21FFF74DFF38B1082320466371FFF7C4
:101B4000CFFE0020BDE8F081206800F08BF900F0A6
:101B5000C000C02804BF03232372206800F082F96C
:101B6000206800F07FF9206800F07CF9D7E700BF1B
:101B7000108FFF1F38B51546027A032A0B4618BF8F
:101B80004B021A4611210446FFF722FF38B92046BE
:101B900029464FF40072BDE83840FFF7B9BE042370
:101BA00020466371FFF79CFE002038BD10B5037A14
:101BB000032B0A4618BF4A0212210446FFF708FF0A
:101BC00030B1052320466371FFF78AFE002010BD67
:101BD0002046FFF785FE012010BD10B50C21002224
:101BE0000446FFF7F5FE30B1032320466371FFF78B
:101BF00077FE002010BD2046FFF772FE012010BDC9
:101C0000F8B5054617461E46FFF7D0FF80B1002401
:101C1000A3B2B34207EB4421284605D2FFF7B2FE38
:101C200001340028F4D103E0BDE8F840FFF7D5BF48
:101C30000020F8BD38B504461546006800F06CF980
:101C40004FF400722068294600F076F92068FF21E1
:101C500000F062F92068FF2100F05EF9206800F0D2
:101C600001F9E07100F01F00052806D0132320467B
:101C70006371FFF735FE002038BD012038BD38B54F
:101C80001546027A032A0B4618BF4B021A46182142
:101C90000446FFF79DFE10B1062363710AE02A4651
:101CA0002046FE21FFF7C6FF054618B12046FFF784
:101CB00017FE03E02046FFF713FE0025284638BD37
:101CC00038B504460D46FFF717FE20464FF416714F
:101CD000FFF766FE50B12A462046FC21FFF7AAFF17
:101CE000054618B12046FFF7FBFD05E0152363719B
:101CF0002046FFF7F5FD0025284638BD70B504469F
:101D000016460D4600223721FFF762FE20461721B6
:101D10003246FFF75DFE08B109230AE0237A032B60
:101D200018BF6D02204619212A46FFF751FE30B137
:101D3000072320466371FFF7D3FD002070BD2046C6
:101D4000FFF7CEFD012070BD38B50446FFF7D4FD86
:101D500020464FF41671FFF723FE70B12068FD2175
:101D600000F0DAF820464FF41671FFF719FE054629
:101D700018B12046FFF7B4FD05E012236371204639
:101D8000FFF7AEFD0025284638BDF8B517461A46C0
:101D900005461E46FFF7B2FF70B10024B44207EBC0
:101DA0004421284604D0FFF78BFF28B10134F5E722
:101DB000BDE8F840FFF7C8BF0020F8BD024B1A6825
:101DC00042F480521A6070473C800440022910D9C6
:101DD000042911D9082911D90C2912D9102913D98C
:101DE000202914D9184B194A40298CBF114619468D
:101DF0000EE04FF000410BE0002109E041F201014B
:101E000006E042F2020103E043F2030100E0104960
:101E1000104BD86841F06052904241F0F0410ED131
:101E2000186988420BD10C4A1A600C4A4FF410739F
:101E30004FF400711360516042F8043C7047084849
:101E40001860DA601961EEE70550010006600100D4
:101E50000440010000C0024000001F8018B0044090
:101E600001401F80084B1A6842F480621A604FF0EC
:101E70000042DA62FF225A63DA6A002AFCDA024B75
:101E8000986BC0B2704700BF00C002401F4B70B5D6
:101E900014461F4A1A60E3070D4605D54E1CFFF78E
:101EA000E1FF013C28703546052C94BF63080323ED
:101EB00000229A4204DA1549164848630132F8E7CD
:101EC000A4EB43042C442946A1420DD20F4AD06A08
:101ED00010F0F00FFAD00F485063926B4A70C2F3C3
:101EE000072008700231EFE704EB430399420BD25D
:101EF000064AD06A10F0F00FFAD0926B4A70C2F323
:101F0000072008700231F1E7002070BD00C00240D8
:101F100000041F80FFFF0090064B1A6842F48062A5
:101F20001A604FF00042DA625963DA6A002AFCDA7A
:101F3000704700BF00C00240214B70B51446214AD3
:101F40001A60E30705D54D1C0978FFF7E5FF013C52
:101F50002946052C94BF630803230C440A4600203D
:101F6000984202F102020BDA12F8015C12F8026CDC
:101F700045EA0626124D46F010466E630130EFE743
:101F800023EAE37201EB4201A14215D208784A78B4
:101F900042EA00200A4AD56A15F0F00FFAD040F064
:101FA00010405063926B0231EEE7054AD16A11F09E
:101FB000F00FFAD0926B013B002BF6D170BD00BF41
:101FC00000C0024000041F8010B50446243000F019
:101FD00021FE28B104F50C70BDE8104000F01ABED7
:101FE00010BD8378024663F07F03837011698068B7
:101FF000103200F0B9BEFFFF2DE9F041037803F085
:102000002003044603F0FF050BB100262EE04369D0
:10201000184A9342F9D8FFF7E4FF06460028F4D0A7
:102020002169A06800F041FE0746A06839462430C7
:10203000052200F016FE80460028E6D029464FF41F
:10204000007203F04EFF0125A06801798D4209D28C
:102050000268E9195368424698470028D5D00135EF
:10206000EDB2F1E7636903EB412161613046BDE800
:10207000F08100BFFFFD1F0010B5044680680A46CE
:102080002430A16900F0EDFD20B1A38803F00F0317
:1020900000EB431010BD70B5057804460E4685B9B7
:1020A0002946242203F01DFFA660F379102B03D0EC
:1020B000202B06D1402300E0202301202370A070B4
:1020C00070BD002070BD2DE9F84F037804468946A5
:1020D000174653B18278D20707D50EE0216904F183
:1020E000100200F0E8FD00283CDA637843F00203B8
:1020F00063704FF0FF30BDE8F88F1A0703D5E2692F
:102100006369D31A07E09B0608D5A3681A89636937
:10211000C3EB42139BB29F4228BF1F463D464FF080
:10212000000A002D35D022786369A06812F0200FD4
:10213000C3F3080B4FEA532102D0066A0E441DE098
:1021400090F805A001EA0A0ABBF1000F10D1BAF11C
:10215000000F0DD1002BC1D156064CBF036A236A74
:10216000236105E004D1237813F0700F11D1BCE78F
:10217000A068216900F099FD00EB0A06A068BBF198
:10218000000F3AD1B5F5007F37D3C36A9E4203D121
:1021900033E0781BBDE8F88FB5F5806F1DD322784A
:1021A0009106C5F3472B06D40279CAEB0202D2B2DC
:1021B0005A4538BF9346B3424FEA4B2809D9A06825
:1021C00003683146D3F808C04A465B46E04768B921
:1021D0008BE75B449E4224D3F1E7036831461B68DA
:1021E0004A469847002880D04FF4007863694344FA
:1021F000C1446361C8EB050593E7314624300022F2
:1022000000F02FFD014600283FF46FAFCBF50078BA
:10221000454538BFA84648465944424600F072FE3C
:10222000E4E7FFF7D1FE0028C9D15EE7436937B57F
:10223000C3F34315044605B169B920460DF1070102
:102240000122FFF740FF40B2012801D0002008E042
:1022500063691F3300E02033A0686361303000EB16
:10226000451003B030BDF8B50278076904460D4645
:10227000002A34D009B921612EE0100703D5E369A3
:1022800099422CD807E0910605D5A3681B89B5EBC8
:10229000431F24D820E0A06866698379711E093342
:1022A00005F1FF3CD9402CFA03F38B4200D32EB941
:1022B00052064CBF026A226A226100E05B1A1E4687
:1022C00056B1A068216904F1100200F0F4FC002866
:1022D00006F1FF36F4DC02E065610120F8BD2761FC
:1022E0000020F8BDF8B50F4616460021242204460A
:1022F0001D4603F0F6FDB8683B6AE36006F00F0286
:1023000000F1300303EB4212A060A680D37A1F07CE
:1023100002D500202070F8BD03F017032370D17A96
:1023200011F0180F04BF43F0080323709DF8183014
:10233000E37015F0320F03D0237813F0110FE8D1BA
:1023400005F00F03A370C36AA361918A538BEE0655
:1023500043EA014104D571B100F03BFD58B9D8E71B
:102360002162D369E361AB060AD52046E169FFF734
:102370007AFF28B9CDE7A37863F07F03A370F2E773
:102380000120F8BD38B50378044663B390F90230F4
:10239000002B23DA0121FFF76FFE054628B9637889
:1023A00043F001036370002038BD0378E52BF6D0BD
:1023B00023781B0744BFE369C361236A43831B0C73
:1023C00083820A4B1B682BB1183005F11601984720
:1023D0002B8B6B82A37803F07F03A370A068FFF7B9
:1023E000F3FD0028DBD0012038BD00BF0C8FFF1F9C
:1023F00010B50446FFF7C6FF0023237010BDF0B5EB
:102400001F4693B0037801920C46002106468DF8D2
:1024100024108DF825100BB100203BE0237813F039
:10242000700FF9D013782F2B13D101990A782F2A26
:1024300002D101310191F8E722B93046A168FFF7D6
:102440002AFE27E009A8A168FFF725FE0028E3D0AF
:1024500009AC019803A901AA00F009F90028DBD012
:10246000019B1B783046214603AA83B1012300F06B
:102470002BFA0028D0D035460FCD09AC0FC40FCDB4
:102480000FC42B6823603046FFF7B2FFE0E73B46FE
:1024900000F01AFA13B0F0BD2DE9B84703781D0714
:1024A00004468946924608D58378990705D55B0787
:1024B0000BD5E169FFF7D7FE38B9637843F0010324
:1024C00063704FF0FF30BDE8B8876369DB439A451E
:1024D000F3D857466369002F00F08380A06890F816
:1024E000058018EA5328C3F3080519D1C5B9216935
:1024F00059B104F1100200F0DEFB0028DDDB0FD142
:102500002046FFF76EFD58B9D7E7236A3BB920464E
:10251000FFF767FD0028D0D02369236200E0236124
:102520002169A06800F0C1FB00EB0801A06815B9A3
:10253000B7F5007F20D2C5F50078474538BFB846CB
:1025400035B96269E3699A422CBF0522012200E095
:102550000122243000F085FB0028AED028444946F3
:102560004246454400F0CEFCB5F5007F32D1A0686C
:10257000243000F04FFB19E0B7F5806F18D30379D2
:10258000C26AC8EB03085FFA88F8C7F347234345DC
:1025900028BF43468A424FEA432802D81A44914250
:1025A00037D3A0680268D5684A46A84790B984E73F
:1025B000C36A8B4204D14FF0FF3380F82450C362CA
:1025C000A06803684A465B68984700283FF475AFE7
:1025D0004FF40078636943446361C144C8EB070763
:1025E00078E7E2699342A27801D9E36102E00C4BFB
:1025F0001B6813B162F07F02A270A3781A0702D49D
:102600005046BDE8B8872046FFF7BCFE0028F7D14A
:1026100053E74FF0FF3280F82450C262C1E700BF99
:102620000C8FFF1F042904D800EB4101B1F8010011
:1026300070470A2904D8013900EB4100C08870476F
:1026400010299DBF013100EB4100808800207047B8
:10265000002310B5044618464208E15C42EAC01265
:10266000013351FA82F20B2BD0B2F5D110BD2DE916
:10267000F04F054601302B78202BFAD08D600020DA
:102680002B5C0BB92B1819E02F2BFBD05C2B02D144
:102690000020BDE8F08F03F0F704222CF8D03A2B8D
:1026A000F6D003F0BF043C2CF2D0A3F13E04012C81
:1026B000EED9203B5E2BEBD80130E1E71E4613F844
:1026C000014B202CFAD02F2CF8D0166050B12B18CB
:1026D00013F8013C2E2B01D0202B01D10138F5E756
:1026E000FF28D5DC48600023CA18013320240B2BB7
:1026F0005473F9D10022AB5C2E2B01D10132FAE7E1
:10270000202BFBD0D2F1010738BF0027441E631CE9
:1027100007D100264FF0070CB346B0464FF008092A
:1027200009E02B5D2E2BF4D0013CF0E7AB5C202BB5
:1027300004D1002701328242F8DB49E02E2B02D17E
:102740009442F6D103E0222B17D07C2B15D0A3F1B5
:102750002A0ABAF1050F01D82D2B0ED1A3F13A0A9E
:10276000BAF1050F09D9A3F15B0ABAF1020F04D936
:10277000A3F1210ABAF15D0F04D9A24224D00027A7
:102780005F2301E0A2421FD0664541D8A3F1610A50
:10279000BAF1190F04D8203BDBB248EA090806E079
:1027A000A3F1410ABAF1190F98BF4BEA090B06F1E0
:1027B000010A5FFA8AFA0E44BAF1060F737301D860
:1027C00081F80CA05646B5E7BCF10A0F19D10027D5
:1027D0004B7B202B3FF45CAF4FB118EA0B0F18BFB7
:1027E0004FF0020881F800800120BDE8F08F0B7BDC
:1027F0000120087019447E234B7331238B73BDE88D
:10280000F08F22464FF00A0C08264FF0100991E78E
:10281000BCF10A0FDBD0A242D9DC22464FF00A0CF1
:1028200008264FF0100984E7F8B50D7B07460C46E3
:1028300002266168A06873189BB200228A4208D001
:1028400010F802E003EB43138EEA03039BB201325C
:10285000F4E7032D28BF03252A1DD2B203F00F0190
:10286000A018013A0929D2B294BF30313731AA42B7
:1028700041734FEA1313F1D863197E225A73384615
:102880000021FFF7F0FC01213846FFF7CFFC01469D
:1028900028B97878D0F1010038BF0020F8BD03785E
:1028A00053B1C37A1B07EED404F10D000B2203F0E1
:1028B00009FB0028E7D101E00120F8BD0136B6B2DE
:1028C000642EB6D1F8BDFFFF2DE9F04F8BB00D4659
:1028D0000693536804930B78089013F0700F174613
:1028E00001D1002091E108990B78002BF9D11378E0
:1028F0009B0700F08181049B03F10C090D23B9FBB8
:10290000F3F909F101095FFA89F94FF00008284647
:102910000021FFF7A8FCC346CDF814804646444684
:10292000CDF81C806B6928460121C3F34F1AFFF7CD
:102930007DFC034620B96B78002B00F08880D0E73F
:102940000278E52A00D042B9002E08BFD0464E4595
:102950003CBF0136F6B222B979E04E4538BF0026B9
:1029600003E0E52A01D10024DCE72E2AFBD0D97A46
:102970000F2949D13CB95106D4D502F01F04597B27
:102980000591A34609E00BF1FF3C5FFA8CFB5A4529
:10299000E9D15A7B05998A42E5D10D210BF1FF322D
:1029A0004A4304998A429246DDD202F10D0109910F
:1029B000C2EB0A011846C9B202920393FFF732FE36
:1029C0000499029A039B8A4503D1002818BF00246A
:1029D000A8E7FF28C7D8C0B2A0F141011929B968FA
:1029E00011F80AE098BF20300AF1010CAEF1410A5B
:1029F00098BFC0B2BAF1190F9CBF0EF1200E5FFA5A
:102A00008EFE7045AFD1FAE00807ACD45CB1BBF1E3
:102A1000010F7FF466AF1846FFF71AFE059B984238
:102A20007FF45FAF0EE0184607F10D010B2203F0B3
:102A300049FA00287FF476AF3B78D90702D5012305
:102A400007936FE7069B1A0640F1CE8049E7069987
:102A500001F04203422B7FF444AF002E18BFC24660
:102A60004E4516D228460021FFF7E0FB10B96B78DF
:102A70007BB136E70136F6B2F2E72846FFF7BCFA3B
:102A800000283FF42EAFAB681B79012B03D810361A
:102A9000F6B24E45F1D3079B33B128463946FFF7CE
:102AA000C3FE00283FF41DAF28464FEA4A11FFF746
:102AB000DAFB00283FF415AF09F1FF34E4B2A04679
:102AC00045E028460021FFF7B1FB064600283FF409
:102AD00008AFAB6893F82420A04542F0010283F8C8
:102AE00024204FF000090CBF48F0400AC2460F23D3
:102AF00080F800A0C37280F80C9007F10D00FFF77A
:102B0000A7FD0AF01F0A70730AF1FF3A0D22B86898
:102B100086F81A9086F81B9002FB0AF24B4604993D
:102B20008A4218D2815C5FFA83FCBCF1040F03F186
:102B3000010E16D806EB4303A3F8011073460D2BC4
:102B400002F10102EBD108F1FF385FFA88F8B8F121
:102B5000000FB6D10EE00CBF00216FF0000189B26A
:102B6000E1E7BCF10A0F94BF06EB430306EB4E030B
:102B70009980E3E76B6928464146C3F34F1AFFF794
:102B800055FB064600283FF4ACAE2022414603F038
:102B9000A8F93B4653F80D2F32605A6872601A89C3
:102BA00032819B7AB3723B7803F018033373184B6E
:102BB0001B682BB106F1100006F10E01984707E0E3
:102BC0002123337428237374082386F80E80F3734B
:102BD000338A73823383F389F382AB6893F82420BA
:102BE00042F0010283F8242000940898069B2946AD
:102BF0005246FFF777FB08E04FF0010985E6099997
:102C00008C453FF48FAEE246D2E60BB0BDE8F08FC4
:102C10000C8FFF1FF8B50378DA0704461ED540680D
:102C2000A168036804F10C065B68324698470546C4
:102C300008B9002513E023789B0704D4237823F0F8
:102C4000010323700BE06068A3680268016957689C
:102C500019443246B8470028F0D1EAE70125284652
:102C6000F8BD83688B4270B504460D46164614D0F5
:102C7000FFF7D0FF08B9002070BD730703D500230C
:102C80002370A56009E06068036829461B6804F1A9
:102C90000C0298470028F2D1EDE72378204606F091
:102CA00003061E4300F80C6B70BD8379406902393E
:102CB00099400844704770B5C379202B04460D46EF
:102CC000164611D18169022200F50C7001EBD51175
:102CD000FFF7C7FF08B9FF201CE005F07F0550F89B
:102CE000253023F070430FE0102BF4D18369C1F33A
:102CF000072100F50C7019440222FFF7B2FF0028EB
:102D0000E9D0EDB230F81530E26993429ABF3360F2
:102D10000120002040B270BD38B5C379202B0C468D
:102D200015460DD18169032200F50C7001EBD41119
:102D3000FFF797FFB8B104F07F0440F8245011E08A
:102D4000102B01D0002038BD8369C1F3072100F5A5
:102D50000C7019440322FFF784FF0028F2D0E4B27C
:102D600020F81450012038BD2DE9F3410546904666
:102D70000F4609B9C66800E00E463446EB690134D7
:102D80009C4288BF02242846214601AAFFF793FFF0
:102D900000280DDB01D0019B13B1B442EED107E056
:102DA000284621466FF07042FFF7B6FF064608B985
:102DB00000260AE037B1284639462246FFF7ACFF25
:102DC00008B9F5E7EC60C8F80040304602B0BDE84D
:102DD000F08173B505460C462846214601AAFFF747
:102DE0006AFF061E01DA00200DE028462146002277
:102DF000FFF792FF0028F6D0EB689C4238BFEC60EA
:102E0000019C002EE8D102B070BD70B501220446CD
:102E10000023C2604FF0FF32C3710D46A06280F8FC
:102E20002430C262C4F8340280F83032C0F838224C
:102E300099B1042958D8243019461A46FFF711FFD2
:102E4000002851D000EB051505F5D475AA79530675
:102E50004AD1D5F80E50002D46D004F12400294661
:102E60000022FFF7FEFE00283ED0B0F80B30B3F58D
:102E7000007F39D1037C022B36D1C389A3B3427BB7
:102E80002271531E63710023A371092101239A4209
:102E900007D0013928D0A6795B000136DBB2A671D4
:102EA000F5E7C38A03B9436A2361C1892944A16153
:102EB000B0F811202281520101EB430302F2FF120C
:102EC000236203EB52236361B0F8132002B9026A54
:102ED000ED1AA1791544CD406B1CE36140F6F47303
:102EE0009D4203D80C23E371002070BD4FF6F473AC
:102EF0009D4285BFC36A236210232023E371012012
:102F000070BDFFFF844641EA000313F003036DD157
:102F1000403A41D351F8043B40F8043B51F8043B9C
:102F200040F8043B51F8043B40F8043B51F8043BA3
:102F300040F8043B51F8043B40F8043B51F8043B93
:102F400040F8043B51F8043B40F8043B51F8043B83
:102F500040F8043B51F8043B40F8043B51F8043B73
:102F600040F8043B51F8043B40F8043B51F8043B63
:102F700040F8043B51F8043B40F8043B51F8043B53
:102F800040F8043B51F8043B40F8043B51F8043B43
:102F900040F8043B403ABDD2303211D351F8043BE3
:102FA00040F8043B51F8043B40F8043B51F8043B23
:102FB00040F8043B51F8043B40F8043B103AEDD292
:102FC0000C3205D351F8043B40F8043B043AF9D2E3
:102FD000043208D0D2071CBF11F8013B00F8013BB6
:102FE00001D30B8803806046704700BF082A13D3C3
:102FF0008B078DD010F003038AD0C3F10403D21ADB
:10300000DB071CBF11F8013B00F8013B80D331F80E
:10301000023B20F8023B7BE7043AD9D3013A11F88E
:10302000013B00F8013BF9D20B7803704B784370F9
:103030008B788370604670470023C25C0AB101330D
:10304000FBE71846704710B50023B0FBF2F402FB13
:103050001400092894BF30303730C0B2C85420461D
:103060000CB10133F1E7CA18547022469A4206DACD
:10307000885CCC5C8C54C8540132013BF6E70846AE
:1030800010BDFFFF044B054900221A600A60044A84
:10309000106010221A60704714D0034004D003401F
:1030A00000D00340212810B518D80D4A52F830300E
:1030B00093F880423CB1012211B183F8802010BD09
:1030C00083F8002110BD02EBC00043681A6811B1FB
:1030D00042F0030201E022F002021A6010BD00BFBC
:1030E0008C640000212816D80B4A02EBC00301298A
:1030F0005B6852F8302004D182F880124FF4A2723B
:1031000008E0002082F8800211B94FF4807201E0DB
:1031100040F203121A6070478C64000072B60B4BC9
:103120000B491A680B4B1B68096862B6490102D546
:10313000322A88BF0133C2F5BB326021FF32B2FBB5
:10314000F1F24FF47A7000FB0320704718E000E0C2
:1031500004ED00E0108FFF1F38B50446FFF7DEFFD7
:10316000054664B1FFF7DAFF401BB0F57A7F03D361
:10317000013C04D005F57A7500F09CFEF2E738BDFD
:103180001F4B4FF4000210B51A604FF080721A60A6
:103190004FF000721A604FF080621A604FF00062C8
:1031A0001A60184B184A194C00204BF6FF71186032
:1031B00059602823136093601361936113629362D3
:1031C000136393630922226004F580540434206061
:1031D0006160A360236144F8042C04F5FE242060A0
:1031E0000B4801600B490B608B600B4B1A6000F0C1
:1031F00081FE0420FFF7B0FFBDE8104000F0CEBB19
:1032000008E100E0048003400C800340008003409C
:1032100008800B400C800B4000800B40F0B50C4B3D
:103220000C4C1A7842F0020504EBC50682F001024C
:10323000706009481A700678002E0CBF8827C827CE
:1032400086F0010647EA0141067044F83510F0BDEA
:103250007C8FFF1F0080FF1FF48FFF1F431E032B77
:1032600010B510D872B6094A52F8230048B1416827
:1032700042F82310064A018832F81340611A22F8F6
:10328000131062B610BD002010BD00BF6C8FFF1F71
:10329000C091FF1F013803280AD872B6054B53F8B6
:1032A0002030002013B101305B68FBE762B6704745
:1032B00000207047C08FFF1F10B572B60123174A58
:1032C0001A4412F8012C12071CD59900144A52F81E
:1032D00031402CB902EB431308305860114B09E020
:1032E00041F0010152F8314064B902EBC1030830EA
:1032F00058600D4B42F831300C4B1A78013A1A7075
:1033000062B610BD0133052BD9D162B6074B00223E
:103310001A70BDE8104000F09FBB00BFC065000000
:103320000080FF1F88004000C8004000EA8FFF1F98
:10333000431E032B30B532D8194A400140F010002B
:10334000104472B6174CE25C032A09D8DFE802F099
:10335000160218050830022213E00830042210E09B
:103360001148124A50F8234014B940F8231002E0E3
:1033700052F82300416042F823100FE0032200E0DE
:103380000522E25410F0080F01F108030A88436097
:103390000CBF8823C82343EA0243036062B630BDF2
:1033A0000080FF1F288FFF1FC08FFF1FD08FFF1FC0
:1033B0002DE9F84FAB4F3C78E4B214F0040F3D46D2
:1033C00019D0A94B1B78A3B1A84A117801F0FF03CB
:1033D00021B1013BDBB2137003B900BEA44A1178DE
:1033E00001F0FF0329B1013BDBB213700BB900F010
:1033F00047FC04233B7004F0080303F0FF02002B9A
:1034000000F063829B4B9C4C1A78D2B215094FEAAC
:10341000920840F0E08104EBC803596854F8383052
:10342000C3F38303013B0C2B00F2D281DFE813F0DE
:1034300091019101D001D001D001D001D001D00182
:10344000AC01D001D001D0010D008C4D0A684B6851
:103450008B486B6001218B4B44F838302A60DFF8D1
:103460005082017092B240F2816000238242C8F81B
:1034700000302361A36117D8B2F5D06F80F01E81B0
:10348000B2F5817F00F0CF8006D8802A00F0BA80A4
:10349000822A00F0BB802DE140F202339A4200F014
:1034A000D180B2F5A06F1CE042F22100824200F010
:1034B0004D810ED8B2F5086F00F09E80B2F5106F06
:1034C00040F01881684B6C4EAA781A7006F180099A
:1034D0000AE042F221218A4200F0088142F22133BF
:1034E0009A4200F00B8105E1336A1B0603D5706A2E
:1034F000083800F0B1FA08364E45F5D10026B1463D
:10350000DFF8B0A156F80A0028B1D0F804B000F0F6
:10351000A3FA5846F8E74AF806005B4BDFF898A193
:10352000F05056F80A0028B1D0F804B000F094FA30
:103530005846F8E7554B4AF80600F050544B23F82C
:103540001900544B19F80320023A032A08D8DFE87F
:1035500002F002040204002200E0012203F8092024
:1035600009F10109B9F1040F06F10406C8D14A4B6B
:1035700000221A7001269A46484A494B3244334485
:1035800012F8012C9B0012F0080F1A704FEA8609FE
:1035900025D000F043FA38B104EB461308305860E8
:1035A000404B44F8393006E09AF8003044F83900CE
:1035B00001338AF8003000F031FA49F0010338B1E4
:1035C00004EBC302083050602E4A44F8332006E072
:1035D00044F833009AF8003001338AF8003049F09B
:1035E0000202013649F003090023052E44F8323067
:1035F00044F83930C0D182E01B4B2B4C1B78237030
:103600000B467FE0284C237063707AE0AA88042A76
:1036100070D8254C920023706370244B9B5C9E07EE
:103620006FD521706DE0AA8802F07F03042B61DC66
:103630006B88002B5ED191001C4A0A44117821F05E
:10364000020155E0AA8802F07F03042B52DC6B884C
:10365000002B4FD19100154A0A44117841F0020124
:1036600046E000BF80200740F38FFF1F7D8FFF1FC4
:10367000F58FFF1F902007400080FF1FE08FFF1F86
:10368000F48FFF1FC8004000188FFF1FD08FFF1F4F
:10369000C091FF1F288FFF1FEA8FFF1FC06500002A
:1036A00030C8011088004000EB8FFF1FC02007408A
:1036B000148FFF1F6C8FFF1FC08FFF1F6A88A988A0
:1036C0009D4B53F8084CA3F10C009CB133F80C6CE3
:1036D000964209D133F80A6C8E4205D1120A032AA8
:1036E0000CBF237803890DE00C33EAE7A978934AED
:1036F000117004E0924B0F221A7027E000231C4641
:1037000000E00223EE88B34238BF1E46402E34BF8D
:103710003546402520462946FFF780FD761B2C4480
:1037200003D1402D12D1354603E0402E34BF35463B
:10373000402520462946FFF771FD761B2C4401D118
:10374000402D03D17F4AC8F80040168001227E4BED
:103750003DE07E4B1A8842F221039A4210D10023A9
:103760007B4AC85C98540133072BF9D11368862B28
:1037700002D1784B0F221A7000200146FFF74EFD50
:10378000754B44F8383023E0744E3568B5B1DFF836
:10379000B481B8F80090B9F1400F34BF4C464024D2
:1037A00028462146FFF73AFDC4EB09039BB2A8F86F
:1037B00000300BB9402C00D12B193360634B1A88B1
:1037C000B2F5A06F04D100225A709A78644B1A7037
:1037D00001225D4B6CE004EBC806013D736802F00A
:1037E0000802A3F10800EDB202F0FF01002A36D072
:1037F00000F032F95B485C4B50F82520EAB1516883
:1038000040F8251002F108017160595D03290BD8B9
:10381000DFE801F002040608032104E0022102E0CF
:10382000052100E00421595516F0080F12880CBF3D
:103830008823C82343EA024342E05A5D032A07D89B
:10384000DFE802F040400204002206E0012204E02A
:1038500016F0080F0CBF022203225A5532E054F82A
:103860003820120C23F8082C22B3DFF82CE123F8BF
:10387000061C43F8041C5EF825303C4913B94EF889
:10388000250002E051F825305860394B41F82500F9
:1038900033F815100A4423F8152000F0BFF810B1D2
:1038A0000830706006E0334B44F838001A78013273
:1038B0001A7007E0284B304A16F0080F08BF13466D
:1038C00044F8383008233B7074E5E0071FD51E49E3
:1038D00029482A4C02230B70294B1A70294B186077
:1038E00098602948D8601A619A615C60144B0D2079
:1038F00018702648FF2303702B700274244A13703B
:10390000244B9F221A7001230B70BDE8F88F21060B
:1039100004D50B4B0D221A7080232B70A20705D5FE
:103920001A4B1A78D2B21A7002232B70E30644BFE6
:1039300010232B70BDE8F88FD06500000490FF1FA6
:10394000C0200740E88FFF1F94200740E08FFF1F33
:10395000C891FF1F7D8FFF1FC8004000148FFF1FFD
:1039600098200740C08FFF1F288FFF1F188FFF1F51
:10397000C091FF1FEA8FFF1F880040002C8FFF1FA0
:103980007C8FFF1F0080FF1F808FFF1F8820074054
:103990008C200740842007406C8FFF1F08B501F082
:1039A000B9F900221A4B0021D15098180832882A00
:1039B0004160F7D1174A106840F48020106002F58A
:1039C00028326832C3F307201070C3F307401B0E80
:1039D00010751376FF2302F81C3C02F8143C02F821
:1039E0008C3C012302F8083C82F8641002F8183C71
:1039F000094B70226FF450711A700B444FF400722F
:103A00001A6003F1C04303F5C82310221A7008BDE1
:103A10000080FF1F3480044049E400E072B60C4A85
:103A20001168B1FA81F30B2B02D962B600207047FE
:103A30004FF00040D84021EA0001116062B605490C
:103A400048225343C8180022CA504260704700BF42
:103A50006C87FF1F0084FF1F0C4B4822C31AB3FB67
:103A6000F2F30B2B11D80A4A127822B1094A1278C4
:103A70000AB1FFF721BC72B6074A4FF0004121FAA4
:103A800003F311681943116062B670470084FF1F89
:103A9000EA8FFF1FF38FFF1F6C87FF1F10B5104CBD
:103AA00023686BB120684288531C0244147A028850
:103AB000934212D3FFF7D0FF094B00221A600DE0AA
:103AC000084B1B7813B94FF0FF3010BD0320FFF7F0
:103AD000C5FB20600028E5D1F5E74380204610BDF6
:103AE0000090FF1FF38FFF1F10B50B4C236813B11D
:103AF00023686BB902E0094B1B7813B94FF0FF3014
:103B000010BD0320FFF7AAFB20600028F0D1F5E7E5
:103B10005A881344187A10BD0090FF1FF38FFF1FBF
:103B2000044B9888044B1B681BB11A885B88D31A16
:103B300018447047C091FF1F0090FF1F2DE9F84304
:103B40002D4E012307460C463370002C4FD02B4DD1
:103B50002B68A9462BBB4AF2F928294B1B7803F0A6
:103B6000FF020BB9327015E00420FFF793FB072822
:103B700008D801233370FFF751FFC9F8000080B95E
:103B80001D4B1870B8F101081E4B01D01A782AB1EC
:103B900001221A704FF0FF30BDE8F88300F08AF977
:103BA000DBE72968174A488800231370C0F14002F8
:103BB000944238BF224600F1080C10448C444880DF
:103BC000A41A934204D0F85C0CF803000133F8E720
:103BD0001F444B883F2B06D940230B800420FFF75E
:103BE000A7FB00232B60084B05221A70ADE7347049
:103BF0002046BDE8F88300BFF68FFF1FF88FFF1F38
:103C0000F38FFF1FFC8FFF1FF58FFF1F07B502AB60
:103C1000012103F8010D1846FFF790FF03B05DF88E
:103C200004FBFFFF2DE9F041114B1B78F3B1114E5E
:103C3000114B3468114D01271F7098464CB1002775
:103C400063882F70042023802146FFF771FB3760C3
:103C500009E0FFF7E3FE014620B104202C70FFF7D6
:103C600067FB00E02F70002388F80030BDE8F0818A
:103C7000F38FFF1FF88FFF1FF68FFF1FF58FFF1FBA
:103C800038B50E4B1B7803F0FF05ABB90C4C21681F
:103C900031B14B880B800420FFF74AFB256038BD0B
:103CA000FFF7BCFE014620B10420BDE83840FFF715
:103CB0003FBB044B01221A7038BD00BFF68FFF1FB7
:103CC000F88FFF1FF58FFF1F08B5FCF75FFEFCF7AD
:103CD000F1FF00F0EFF8FAE707B5064B1B88ADF8E7
:103CE0000430036801A95B680222984703B05DF8BD
:103CF00004FB00BF9C65000070B505468AB022B980
:103D00000368C9B21B6898472CE0012A08BF0A2241
:103D100021B930228DF82520212413E02124B1FB84
:103D2000F2F002FB1011C9B209290AAE94BF30317A
:103D300037312644C9B206F8241C014610B1013CB3
:103D4000E4B2ECE733B1013CE4B20AAB23442D22E8
:103D500003F8242C2B6801A95B6828462144C4F190
:103D6000220298470AB070BD0029BABF49422D23EC
:103D700000230A22FFF7C0BF2DE9F347804614460F
:103D80001D4610461946002200239DF8289001F098
:103D900079FD20B105F100473D46012600E00646C9
:103DA000334B00270022F9B249450AD21046194682
:103DB0002DA3D3E9002301F0F3FA013702460B46A5
:103DC000F1E72046294601F039F90D46044601F095
:103DD00081FD07463346404639460A22FFF78CFFED
:103DE0000646B9F1000F3BD0384601F063FAB9F14D
:103DF000070F28BF4FF007090B4602462946204609
:103E000001F01AF909F101092E238DF800305FFA4B
:103E100089F94FF0010A0022164B01F0C1FA0D4654
:103E2000044601F057FD02AB5344C0B200F130022A
:103E300003F8082C01F04EFA0AF1010702460B467E
:103E4000FFB22046294601F0F7F84F4501D0BA46A7
:103E5000E1E7D8F8003040465B6869464A46984733
:103E6000304602B0BDE8F0879A9999999999B93F7F
:103E70000000E03F00002440FFF752BEFFF70EBEF7
:103E8000FFF732BEFFF7CEBE0846FFF7BFBE0846BB
:103E90001146FFF753BE7047044B00221A714FF4CE
:103EA0007A711A73024A99601A6070470890FF1F6E
:103EB000A865000010B50E4C2378BBB90123237010
:103EC000FFF72EFE08B1FFF7E6FF00F037FA08B162
:103ED00000F0BAFF00F082FC08B101F027F800F012
:103EE00077FE08B101F094F80023237010BD00BFE5
:103EF0001890FF1F10B5204B2048214960221A70EE
:103F0000E1225A701F4B204A1C78204B082C01D10B
:103F1000012402E00A2C03D139240460132005E0B7
:103F20000C2C0CBF35243D24046012200860146062
:103F30001860174B17491B78174A03B101230B6010
:103F40001360164B164A1978164B012901D88021A7
:103F50000BE0042901D8842107E0082901D8852134
:103F600003E0102994BF86218721116019600E4B50
:103F700001221A7010BD00BF0040074008B0034086
:103F80000CB003407087FF1F08B00B400CB00B4013
:103F90001A90FF1F20B0034020B00B407187FF1F15
:103FA00024B0034024B00B401990FF1F024B1A6845
:103FB00001321A60704700BF108FFF1F08B50B4C0D
:103FC0002368580301D5FFF7F3F92368590501D594
:103FD00000F014FA23681A0501D500F05FFC23688D
:103FE000DB04ECD500F040FEE9E700BF348004407C
:103FF00008B5FFF7E3FFFFFF014B10221A8070475F
:10400000002005407047FFFFEFF313839BB9EFF3E8
:10401000108098B9EFF3058323B10F2B04D9084A18
:10402000985C01E04FF48070EFF311833BB1834261
:1040300038BF184670474FF0FF307047184670473A
:10404000F0E300E0194B1A6842F480621A60184AE3
:1040500000231370174A1370174A1370174A13700E
:10406000174A1370174B40F213321A604FF4517213
:104070005A60154BC0F344321A70C0F347125A709D
:104080000221042200F01F0098729A70D9745A75A8
:1040900088221A743C22DA700C4B40226FF44A7169
:1040A0001A700B444FF400521A6070473480044079
:1040B0009D90FF1F1C90FF1FA490FF1F9E90FF1F4D
:1040C0001B90FF1F40A0044000A006402DE400E02C
:1040D000134A937800F0030103F0EC030B4341070C
:1040E00048BF43F01003937000F00F03042B0C49FA
:1040F00003D18B7943F040038B715379C20603F0EF
:10410000EF03074A48BF43F01003537193798106C8
:1041100003F0EF0348BF43F010039371704700BFF3
:1041200000A0064008B50E4B1B685B0500D408BD17
:104130000C4B1A7802F0FF0312B1FFF7BBFEF7E752
:10414000094A4FF400511160084A0949D37040F2FE
:1041500003120A604A60074A1370074A137008BDC9
:10416000348004401B90FF1F84E100E000A0064063
:1041700040A004409D90FF1F1C90FF1F38B50446CF
:10418000094B1B7803F0FF05002BF9D120460121D4
:10419000FEF7A8FF20462946FEF784FF034B53F89D
:1041A0003420034B1A6038BD1B90FF1F8C64000045
:1041B000A090FF1FF8B51D4B1B685A05064633D566
:1041C0001B4B1B680BB101221A701A4B1C7801346F
:1041D000402C1F4628BF0024174D2B78A34218D12E
:1041E000FFF712FF40280FDC144A13791B06F3D5A2
:1041F0002B7813490133402B28BF0023C95CDBB265
:10420000C9B2D1712B70E7E7FF28E5DDFFF752FE59
:10421000E2E70B4BF6B21E550A4B01221A70074B10
:10422000E4B2BC223C70DA70F8BD00BF34800440B8
:10423000A090FF1FA490FF1F9E90FF1F00A00640AC
:104240001D90FF1F1B90FF1F274B1B685A052DE970
:10425000F04707468A4644D5244B1B680BB1012220
:104260001A703D4607EB0A039D4237D2DFF8908073
:104270001F4E98F8004096F800900134402C28BF5B
:1042800000245FFA89F9A1451DD11A4BBC22DA70CE
:10429000FFF7BAFE40280FDC164A13791B060FD52C
:1042A000337815490133402B28BF0023C95CDBB2AA
:1042B000C9B2D171337003E0FF2801DDFFF7FAFDC9
:1042C00033784B45E4D00C4B15F8012B1A550B4BAA
:1042D0000122E4B21A7088F80040C3E7054BBC2203
:1042E000DA70BDE8F08700BF34800440A090FF1F63
:1042F0009E90FF1F00A006401D90FF1F1B90FF1FF8
:10430000A490FF1F08B5034B1B7813B1FFF7D2FD34
:10431000F9E708BD1B90FF1F064A074B1B78107872
:10432000DBB2C0B283422CBF3F3000F1FF30C01A75
:10433000704700BF9E90FF1FA490FF1F054B187889
:10434000054B1B78C0B2DBB2984238BF4030C01A70
:10435000704700BF9D90FF1F1C90FF1F094B0A4A2A
:1043600019781378DBB2994208D00133402B28BF6B
:1043700000230649C85CDBB2137070474FF0FF3072
:10438000704700BF9D90FF1F1C90FF1F5D90FF1F97
:10439000084B1A78084B1B78DBB29A4207D00133DE
:1043A000402B28BF0023054AD05CC0B270474FF0B5
:1043B000FF3070479D90FF1F1C90FF1F5D90FF1FF7
:1043C0000A4B1B685B050FD5094BDA7802F0CB026C
:1043D000DA7040225A74DA7842F03402DA70054B0F
:1043E0001A78054BD2B21A70704700BF348004406F
:1043F00000A006401C90FF1F9D90FF1F30B5304B62
:104400001A7912F0300F23D072B69A7D02F0FF01B4
:1044100022B9DA7940225A7462B619E062B6294BA1
:1044200029481A780478D2B2E4B21846244BDD79D0
:10443000531C402B28BF0023A342EDB202D0234AD5
:10444000D5541A464B1E13F0FF01EFD1D2B20270C1
:104450001B4BD978C9B20C0620D51B7918061DD57F
:104460001B4B1C4A1D781378EDB2DBB21046AB42F1
:104470000CD0134A0133402B1479174C28BF00236A
:10448000E45CE4B2D471127D072AF0D9DBB2037088
:104490000B4B1A79120644BF7C22DA704B060ED5FC
:1044A000074B1A7912F0400F194608D00B4B002227
:1044B0001A700B4B1B6803B11A703C23CB7030BDD4
:1044C00000A006409D90FF1F1C90FF1F5D90FF1FE6
:1044D000A490FF1F9E90FF1F1D90FF1F1B90FF1FAA
:1044E000A090FF1F194B1A6842F400621A60184A24
:1044F00000231370174A1370174A1370174A13706A
:10450000174A1370174B40F213321A604FF451726E
:104510005A60154BC0F344321A70C0F347125A70F8
:1045200000F01F000422022198729A70D9745A7503
:1045300088221A743C22DA700C4B40221A70A3F2C3
:104540002B334FF400421A60704700BF34800440A0
:104550000F91FF1FA690FF1F1891FF1F1091FF1FC3
:10456000A590FF1F0CB0044000B006402FE400E00F
:10457000134A937800F0030103F0EC030B43410767
:1045800048BF43F01003937000F00F03042B0C4955
:1045900003D18B7943F040038B715379C20603F04A
:1045A000EF03074A48BF43F0100353719379810624
:1045B00003F0EF0348BF43F010039371704700BF4F
:1045C00000B0064008B50E4B1B681B0500D408BDA3
:1045D0000C4B1A7802F0FF0312B1FFF76BFCF7E700
:1045E000094A4FF400411160084A0949D37040F26A
:1045F00003120A604A60074A1370074A137008BD25
:1046000034800440A590FF1F84E100E000B0064024
:104610000CB004400F91FF1FA690FF1F38B5044651
:10462000094B1B7803F0FF05002BF9D1204601212F
:10463000FEF758FD20462946FEF734FD034B53F89C
:104640003420034B1A6038BDA590FF1F8C64000016
:104650001491FF1FF8B51D4B1B681A05064633D58C
:104660001B4B1B680BB101221A701A4B1C780134CA
:10467000282C1F4628BF0024174D2B78A34218D1A1
:10468000FFF7C2FC40280FDC144A13791B06F3D550
:104690002B7813490133282B28BF0023C95CDBB2D8
:1046A000C9B2D1712B70E7E7FF28E5DDFFF702FC07
:1046B000E2E70B4BF6B21E550A4B01221A70074B6C
:1046C000E4B2BC223C70DA70F8BD00BF3480044014
:1046D0001491FF1F1891FF1F1091FF1F00B006409B
:1046E000A790FF1FA590FF1F274B1B681A052DE9F8
:1046F000F04707468A4644D5244B1B680BB101227C
:104700001A703D4607EB0A039D4237D2DFF89080CE
:104710001F4E98F8004096F800900134282C28BFCE
:1047200000245FFA89F9A1451DD11A4BBC22DA7029
:10473000FFF76AFC40280FDC164A13791B060FD5D9
:10474000337815490133282B28BF0023C95CDBB21D
:10475000C9B2D171337003E0FF2801DDFFF7AAFB76
:1047600033784B45E4D00C4B15F8012B1A550B4B05
:104770000122E4B21A7088F80040C3E7054BBC225E
:10478000DA70BDE8F08700BF348004401491FF1F49
:104790001091FF1F00B00640A790FF1FA590FF1FBC
:1047A0001891FF1F08B5034B1B7813B1FFF782FB6D
:1047B000F9E708BDA590FF1F064A074B1B78107844
:1047C000DBB2C0B283422CBF273000F1FF30C01AE9
:1047D000704700BF1091FF1F1891FF1F054B1878FD
:1047E000054B1B78C0B2DBB2984238BF4030C01ACC
:1047F000704700BF0F91FF1FA690FF1F094B0A4A89
:1048000019781378DBB2994208D00133402B28BFC6
:1048100000230649C85CDBB2137070474FF0FF30CD
:10482000704700BF0F91FF1FA690FF1FCF90FF1F83
:10483000084B1A78084B1B78DBB29A4207D0013339
:10484000402B28BF0023054AD05CC0B270474FF010
:10485000FF3070470F91FF1FA690FF1FCF90FF1FE3
:104860000A4B1B681B050FD5094BDA7802F0CB0207
:10487000DA7040225A74DA7842F03402DA70054B6A
:104880001A78054BD2B21A70704700BF34800440CA
:1048900000B00640A690FF1F0F91FF1F30B5304BB0
:1048A0001A7912F0300F23D072B69A7D02F0FF0110
:1048B00022B9DA7940225A7462B619E062B6294BFD
:1048C00029481A780478D2B2E4B21846244BDD792C
:1048D000531C402B28BF0023A342EDB202D0234A31
:1048E000D5541A464B1E13F0FF01EFD1D2B202701D
:1048F0001B4BD978C9B20C0620D51B7918061DD5DB
:104900001B4B1C4A1D781378EDB2DBB21046AB424C
:104910000CD0134A0133282B1479174C28BF0023DD
:10492000E45CE4B2D471127D072AF0D9DBB20370E3
:104930000B4B1A79120644BF7C22DA704B060ED557
:10494000074B1A7912F0400F194608D00B4B002282
:104950001A700B4B1B6803B11A703C23CB7030BD2F
:1049600000B006400F91FF1FA690FF1FCF90FF1FC2
:104970001891FF1F1091FF1FA790FF1FA590FF1F09
:104980001491FF1F174B1A6842F480521A60164A9E
:1049900000231370154A1370154A1370154A1370CB
:1049A000154A1370154A40F2133111604FF45171DA
:1049B0005160134AC0F344311170C0F3471100F045
:1049C0001F0051709072937013742C23D3700D4B91
:1049D00040226FF44B711A700B444FF400321A608E
:1049E000704700BF348004408391FF1F1A91FF1F5E
:1049F0008C91FF1F8491FF1F1991FF1F08C0044075
:104A000000C0064031E400E0134A937800F003014F
:104A100003F0EC030B43410748BF43F010039370CE
:104A200000F00F03042B0C4903D18B7943F04003B2
:104A30008B715379C20603F0EF03074A48BF43F076
:104A4000100353719379810603F0EF0348BF43F0DD
:104A500010039371704700BF00C0064008B50E4BAD
:104A60001B68DB0400D408BD0C4B1A7802F0FF036E
:104A700012B1FFF71FFAF7E7094A4FF4003111604E
:104A8000084A0949D37040F203120A604A60074A93
:104A90001370074A137008BD348004401991FF1F3A
:104AA00084E100E000C0064008C004408391FF1F7D
:104AB0001A91FF1F38B50446094B1B7803F0FF0518
:104AC000002BF9D120460121FEF70CFB2046294698
:104AD000FEF7E8FA034B53F83420034B1A6038BD55
:104AE0001991FF1F8C6400008891FF1FF8B51D4BC2
:104AF0001B68DA04064633D51B4B1B680BB1012239
:104B00001A701A4B1C780134282C1F4628BF002429
:104B1000174D2B78A34218D1FFF776FA40280FDC07
:104B2000144A13791B06F3D52B7813490133282B2C
:104B300028BF0023C95CDBB2C9B2D1712B70E7E793
:104B4000FF28E5DDFFF7B6F9E2E70B4BF6B21E559D
:104B50000A4B01221A70074BE4B2AC223C70DA70A7
:104B6000F8BD00BF348004408891FF1F8C91FF1F67
:104B70008491FF1F00C006401B91FF1F1991FF1F6A
:104B800038B504464518AC4204D014F8010BFFF7C1
:104B9000ADFFF8E738BDFFFF08B5034B1B7813B135
:104BA000FFF788F9F9E708BD1991FF1F064A074B7F
:104BB0001B781078DBB2C0B283422CBF273000F1E3
:104BC000FF30C01A704700BF8491FF1F8C91FF1FF8
:104BD000054B1878054B1B78C0B2DBB2984238BF42
:104BE0004030C01A704700BF8391FF1F1A91FF1F0A
:104BF000094B0A4A19781378DBB2994208D001337D
:104C0000402B28BF00230649C85CDBB213707047F5
:104C10004FF0FF30704700BF8391FF1F1A91FF1FB5
:104C20004391FF1F084B1A78084B1B78DBB29A425E
:104C300007D00133402B28BF0023054AD05CC0B207
:104C400070474FF0FF3070478391FF1F1A91FF1F8D
:104C50004391FF1F024B1A78024BD2B21A70704771
:104C60001A91FF1F8391FF1F10B5214B1A799206ED
:104C70000FD5204AD87913781F490133402B097882
:104C800028BF00238B42C0B203D01C49C854DBB2FA
:104C90001370174AD178C9B20C0616D513791806C5
:104CA00013D5174B17481C780378DBB29C4202D10E
:104CB0006C23D37009E00133282B28BF0023124C4A
:104CC000E45CDBB2E4B2D47103704B060ED5084B42
:104CD0001A7912F0400F194608D00C4B00221A70B6
:104CE0000B4B1B6803B11A702C23CB7010BD00BF97
:104CF00000C006408391FF1F1A91FF1F4391FF1FC1
:104D00008C91FF1F8491FF1F1B91FF1F1991FF1FA3
:104D10008891FF1F1FB572B6154B70221A70154A85
:104D2000412111700F2102F8011C80221A701A789B
:104D30001206FCD5104B186862B6104B984298BF0B
:104D40000A2301AC98BF584321460A22FEF77BF99B
:104D50000023E15C0A4A29B102EB430001330A2B2C
:104D60004180F6D101335B00137004B010BD00BF69
:104D70000000024007000240080002407F969800B1
:104D8000FA87FF1F08B50368C9B21B68984708BDBA
:104D900008B50368C9B21B68984708BD08B5036821
:104DA000C9B21B68984708BD08B50368C9B21B683B
:104DB000984708BD4B0803F1376000F5D830B0FBC9
:104DC000F1F0FFF73FB910B54B0803F1376000F57C
:104DD000D8301446B0FBF1F0FFF734F92046BDE8B7
:104DE0001040FFF775B9FFF79DB90846FFF7C6B940
:104DF000FFF7A4BAFFF7CCBAFFF7B0BAFFF782BA51
:104E0000FFF7DEBAFFF788BA08B50846FFF7D2F910
:104E1000012008BD08B50846FFF7CCF9012008BD00
:104E200010B5084614461146FFF70EFA204610BD8D
:104E300038B508460D46FEF7FFF8044621462846D9
:104E4000FFF702FA204638BD7047FFFF044B0022EF
:104E50001A714FF47A711A73024A99601A60704796
:104E60009091FF1F2066000008B50368C9B21B6857
:104E7000984708BD08B50368C9B21B68984708BDC4
:104E800008B50368C9B21B68984708BD08B5036830
:104E9000C9B21B68984708BD4B0803F1376000F59D
:104EA000D830B0FBF1F0FFF71DBB10B54B0803F194
:104EB000376000F5D8301446B0FBF1F0FFF712FB75
:104EC0002046BDE81040FFF753BBFFF77BBB084609
:104ED000FFF7A4BBFFF782BCFFF7AABCFFF78EBCAD
:104EE000FFF760BCFFF7BCBCFFF766BC08B508461F
:104EF000FFF7B0FB012008BD08B50846FFF7AAFB85
:104F0000012008BD10B5084614461146FFF7ECFB1A
:104F1000204610BD38B508460D46FEF78DF804460C
:104F200021462846FFF7E0FB204638BD7047FFFFCB
:104F3000044B00221A714FF47A711A73024A996075
:104F40001A607047A091FF1F7066000008B50368E3
:104F5000C9B21B68984708BD08B50368C9B21B6889
:104F6000984708BD08B50368C9B21B68984708BDD3
:104F700008B50368C9B21B68984708BD4B0803F120
:104F8000B76000F55840B0FBF1F0FFF7FBBC10B57F
:104F90004B0803F1B76000F558401446B0FBF1F040
:104FA000FFF7F0FC2046BDE81040FFF72DBDFFF7EE
:104FB00055BD0846FFF77EBDFFF70ABEFFF732BEBC
:104FC000FFF716BEFFF7E8BDFFF744BEFFF7EEBDE3
:104FD00008B50846FFF78AFD012008BD08B5084658
:104FE000FFF784FD012008BD10B5084614461146A0
:104FF000FFF7C6FD204610BD38B508460D46FEF742
:105000001BF8044621462846FFF7BAFD204638BD66
:105010007047FFFF044B00221A714FF47A711A7324
:10502000024A99601A607047B091FF1FC066000085
:1050300081F0004102E000BF83F0004330B54FEA49
:1050400041044FEA430594EA050F08BF90EA020FB6
:105050001FBF54EA000C55EA020C7FEA645C7FEA49
:10506000655C00F0E2804FEA5454D4EB5555B8BF6C
:105070006D420CDD2C4480EA020281EA030382EADD
:10508000000083EA010180EA020281EA0303362D6F
:1050900088BF30BD11F0004F4FEA01314FF4801C42
:1050A0004CEA113102D0404261EB410113F0004F54
:1050B0004FEA03334CEA133302D0524263EB43030B
:1050C00094EA050F00F0A780A4F10104D5F1200EA9
:1050D0000DDB02FA0EFC22FA05F2801841F1000104
:1050E00003FA0EF2801843FA05F359410EE0A5F1D8
:1050F00020050EF1200E012A03FA0EFC28BF4CF009
:10510000020C43FA05F3C01851EBE37101F00045BE
:1051100007D54FF0000EDCF1000C7EEB00006EEBCB
:105120000101B1F5801F1BD3B1F5001F0CD3490855
:105130005FEA30004FEA3C0C04F101044FEA4452AC
:1051400012F5800F80F09A80BCF1004F08BF5FEA33
:10515000500C50F1000041EB045141EA050130BD13
:105160005FEA4C0C404141EB010111F4801FA4F1B6
:105170000104E9D191F0000F04BF01460020B1FA0B
:1051800081F308BF2033A3F10B03B3F120020CDA43
:105190000C3208DD02F1140CC2F10C0201FA0CF021
:1051A00021FA02F10CE002F11402D8BFC2F1200C86
:1051B00001FA02F120FA0CFCDCBF41EA0C0190403C
:1051C000E41AA2BF01EB0451294330BD6FEA040485
:1051D0001F3C1CDA0C340EDC04F11404C4F1200270
:1051E00020FA04F001FA02F340EA030021FA04F382
:1051F00045EA030130BDC4F10C04C4F1200220FAD9
:1052000002F001FA04F340EA0300294630BD21FA16
:1052100004F0294630BD94F0000F83F4801306BFDC
:1052200081F480110134013D4EE77FEA645C18BFD0
:105230007FEA655C29D094EA050F08BF90EA020F67
:1052400005D054EA000C04BF1946104630BD91EA5F
:10525000030F1EBF0021002030BD5FEA545C05D162
:105260004000494128BF41F0004130BD14F58004A1
:105270003CBF01F5801130BD01F0004545F0FE4115
:1052800041F470014FF0000030BD7FEA645C1ABF4A
:10529000194610467FEA655C1CBF0B46024650EA81
:1052A000013406BF52EA033591EA030F41F40021AD
:1052B00030BD00BF90F0000F04BF0021704730B533
:1052C0004FF4806404F132044FF000054FF0000108
:1052D00050E700BF90F0000F04BF0021704730B5C9
:1052E0004FF4806404F1320410F0004548BF40429E
:1052F0004FF000013EE700BF42004FEAE2014FEAF3
:1053000031014FEA02701FBF12F07F4393F07F4FCD
:1053100081F06051704792F0000F14BF93F07F4FFF
:10532000704730B54FF4607401F0004521F0004142
:1053300020E700BF50EA010208BF704730B54FF0C8
:1053400000050AE050EA010208BF704730B511F0CD
:10535000004502D5404261EB41014FF4806404F105
:1053600032045FEA915C3FF4DCAE4FF003025FEA87
:10537000DC0C18BF03325FEADC0C18BF033202EB0F
:10538000DC02C2F1200300FA03FC20FA02F001FA69
:1053900003FE40EA0E0021FA02F11444C1E600BF08
:1053A00070B54FF0FF0C4CF4E06C1CEA11541DBFBB
:1053B0001CEA135594EA0C0F95EA0C0F00F0DEF886
:1053C0002C4481EA030621EA4C5123EA4C5350EA6B
:1053D000013518BF52EA033541F4801143F48013BC
:1053E00038D0A0FB02CE4FF00005E1FB02E506F04D
:1053F0000042E0FB03E54FF00006E1FB03569CF0A2
:10540000000F18BF4EF0010EA4F1FF04B6F5007FA7
:1054100064F5407404D25FEA4E0E6D4146EB060619
:1054200042EAC62141EA55514FEAC52040EA5E50A2
:105430004FEACE2EB4F1FD0C88BFBCF5E06F1ED84C
:10544000BEF1004F08BF5FEA500E50F1000041EB83
:10545000045170BD06F0004646EA010140EA020030
:1054600081EA0301B4EB5C04C2BFD4EB0C0541EA52
:10547000045170BD41F480114FF0000E013C00F367
:10548000AB8014F1360FDEBF002001F0004170BD8B
:10549000C4F10004203C35DA0C341BDC04F11404A4
:1054A000C4F1200500FA05F320FA04F001FA05F230
:1054B00040EA020001F0004221F0004110EBD370FD
:1054C00021FA04F642EB06015EEA430E08BF20EA29
:1054D000D37070BDC4F10C04C4F1200500FA04F3CC
:1054E00020FA05F001FA04F240EA020001F000415E
:1054F00010EBD37041F100015EEA430E08BF20EAD1
:10550000D37070BDC4F1200500FA05F24EEA020E18
:1055100020FA04F301FA05F243EA020321FA04F047
:1055200001F0004121FA04F220EA020000EBD370FE
:105530005EEA430E08BF20EAD37070BD94F0000FFE
:105540000FD101F00046400041EB010111F4801F32
:1055500008BF013CF7D041EA060195F0000F18BFE3
:10556000704703F00046520043EB030313F4801F1F
:1055700008BF013DF7D043EA0603704794EA0C0FD9
:105580000CEA135518BF95EA0C0F0CD050EA4106EF
:1055900018BF52EA4306D1D181EA030101F000416C
:1055A0004FF0000070BD50EA410606BF1046194694
:1055B00052EA430619D094EA0C0F02D150EA0136A0
:1055C00013D195EA0C0F05D152EA03361CBF1046E1
:1055D00019460AD181EA030101F0004141F0FE4180
:1055E00041F470014FF0000070BD41F0FE4141F404
:1055F000780170BD70B54FF0FF0C4CF4E06C1CEA04
:1056000011541DBF1CEA135594EA0C0F95EA0C0FB8
:1056100000F0A7F8A4EB050481EA030E52EA033573
:105620004FEA013100F088804FEA03334FF0805594
:1056300045EA131343EA12634FEA022245EA1115C1
:1056400045EA10654FEA00260EF000419D4208BF72
:10565000964244F1FD0404F5407402D25B084FEA1F
:105660003202B61A65EB03055B084FEA32024FF4CB
:1056700080104FF4002CB6EB020E75EB030E22BF28
:10568000B61A754640EA0C005B084FEA3202B6EBE8
:10569000020E75EB030E22BFB61A754640EA5C0097
:1056A0005B084FEA3202B6EB020E75EB030E22BF27
:1056B000B61A754640EA9C005B084FEA3202B6EB28
:1056C000020E75EB030E22BFB61A754640EADC00E7
:1056D00055EA060E18D04FEA051545EA16754FEA49
:1056E00006164FEAC30343EA52734FEAC2025FEA67
:1056F0001C1CC0D111F4801F0BD141EA00014FF0F6
:1057000000004FF0004CB6E711F4801F04BF0143C6
:105710000020B4F1FD0C88BFBCF5E06F3FF6AFAEE2
:10572000B5EB030C04BFB6EB020C5FEA500C50F172
:10573000000041EB045170BD0EF0004E4EEA1131F5
:1057400014EB5C04C2BFD4EB0C0541EA045170BDFC
:1057500041F480114FF0000E013C90E645EA060E40
:105760008DE60CEA135594EA0C0F08BF95EA0C0F6E
:105770003FF43BAF94EA0C0F0AD150EA01347FF4B6
:1057800034AF95EA0C0F7FF425AF104619462CE78D
:1057900095EA0C0F06D152EA03353FF4FDAE1046F0
:1057A000194622E750EA410618BF52EA43067FF441
:1057B000C5AE50EA41047FF40DAF52EA43057FF4D1
:1057C000EBAE12E74FF0FF3C06E000BF4FF0010CDC
:1057D00002E000BF4FF0010C4DF804CD4FEA410C40
:1057E0007FEA6C5C4FEA430C18BF7FEA6C5C1BD00D
:1057F00001B050EA410C0CBF52EA430C91EA030F8E
:1058000002BF90EA020F0020704710F1000F91EAEA
:10581000030F58BF994208BF90422CBFD8176FEAB8
:10582000E37040F0010070474FEA410C7FEA6C5C86
:1058300002D150EA013C07D14FEA430C7FEA6C5C8D
:10584000D6D152EA033CD3D05DF8040B704700BFB9
:105850008446104662468C461946634600E000BF07
:1058600001B5FFF7B7FF002848BF10F1000F01BDD9
:105870004DF808EDFFF7F4FF0CBF012000205DF8A4
:1058800008FB00BF4DF808EDFFF7EAFF34BF012029
:1058900000205DF808FB00BF4DF808EDFFF7E0FFC2
:1058A00094BF012000205DF808FB00BF4DF808ED13
:1058B000FFF7CEFF94BF012000205DF808FB00BF7A
:1058C0004DF808EDFFF7C4FF34BF012000205DF85C
:1058D00008FB00BF4A0011D212F5001211D20DD5FB
:1058E0006FF47873B3EB62520ED44FEAC12343F0E6
:1058F000004343EA505323FA02F070474FF0000090
:10590000704750EA013002D14FF0FF3070474FF03E
:10591000000070474FEA4102B2F1E04324BFB3F503
:10592000001CDCF1FE5C0DD901F0004C4FEAC00216
:105930004CEA5070B2F1004F40EB830008BF20F0FA
:105940000100704711F0804F21D113F13872BCBFB4
:1059500001F00040704741F480114FEA5252C2F109
:105960001802C2F1200C10FA0CF320FA02F018BF52
:1059700040F001004FEAC1234FEAD32303FA0CFCA5
:1059800040EA0C0023FA02F34FEA4303CCE77FEA34
:10599000625307D150EA01331EBF4FF0FE4040F47E
:1059A0004000704701F0004040F0FE4040F400002D
:1059B000704700BF80F0004002E000BF81F000416E
:1059C00042001FBF5FEA410392EA030F7FEA226CA5
:1059D0007FEA236C6AD04FEA1262D2EB1363C1BF35
:1059E000D218414048404140B8BF5B42192B88BFA4
:1059F000704710F0004F40F4000020F07F4018BFC7
:105A0000404211F0004F41F4000121F07F4118BFE6
:105A1000494292EA030F3FD0A2F1010241FA03FC8E
:105A200010EB0C00C3F1200301FA03F100F0004376
:105A300002D5494260EB4000B0F5000F13D3B0F13E
:105A4000807F06D340084FEA310102F10102FE2AAD
:105A500051D2B1F1004F40EBC25008BF20F001001D
:105A600040EA03007047490040EB000010F4000FCB
:105A7000A2F10102EDD1B0FA80FCACF1080CB2EB5E
:105A80000C0200FA0CF0AABF00EBC25052421843BD
:105A9000BCBFD0401843704792F0000F81F4000162
:105AA00006BF80F400000132013BB5E74FEA410335
:105AB0007FEA226C18BF7FEA236C21D092EA030FA1
:105AC00004D092F0000F08BF0846704790EA010F1B
:105AD0001CBF0020704712F07F4F04D1400028BF48
