:1000000000800020BD010000CD2B0000912B0000DE
:10001000912B0000912B0000912B0000912B0000F0
:10002000912B0000912B0000912B0000CD2B0000A4
:10003000CD2B0000912B0000CD2B0000812B000068
:10004000CD2B0000CD2B0000CD2B0000CD2B0000D0
:10005000CD2B0000CD2B0000CD2B0000CD2B0000C0
:10006000CD2B0000CD2B0000CD2B0000CD2B0000B0
:10007000CD2B0000CD2B0000CD2B0000CD2B0000A0
:10008000CD2B0000CD2B0000CD2B0000CD2B000090
:10009000CD2B0000CD2B0000CD2B0000CD2B000080
:1000A000CD2B0000CD2B0000CD2B0000CD2B000070
:1000B000CD2B0000CD2B0000CD2B0000CD2B000060
:1000C000CD2B0000CD2B0000CD2B0000CD2B000050
:1000D000CD2B0000CD2B0000CD2B0000CD2B000040
:1000E000CD2B0000CD2B0000CD2B0000CD2B000030
:1000F000CD2B000069310000CD2B000065370000DA
:10010000CD2B0000853C0000CD2B0000CD2B000046
:10011000CD2B0000CD2B0000CD2B0000CD2B0000FF
:10012000CD2B0000CD2B0000CD2B0000CD2B0000EF
:10013000CD2B0000CD2B0000CD2B0000CD2B0000DF
:10014000CD2B0000CD2B0000CD2B0000CD2B0000CF
:10015000CD2B0000CD2B0000CD2B0000CD2B0000BF
:10016000CD2B00003D1D0000CD2B0000CD2B00004D
:10017000CD2B0000CD2B0000CD2B0000CD2B00009F
:10018000CD2B0000CD2B0000CD2B0000CD2B00008F
:10019000CD2B0000CD2B0000CD2B0000CD2B00007F
:1001A000CD2B0000CD2B0000CD2B0000CD2B00006F
:1001B000CD2B0000CD2B0000CD2B0000574B4CF277
:1001C000205210B51A804DF628121A8000BF00BFC9
:1001D00002F000FD524B4FF010621A60514A9A60D3
:1001E000514ADA60A3F53043203B1A6812F480725A
:1001F00004D14E490A604FF4A8521A604C4B1A7849
:10020000110703D51A7842F008021A70494B4A4C7C
:100210004A482A221A704A4A00239918A14203D256
:10022000195899500433F8E7464B474900228B424E
:1002300002D243F8042BFAE74448454900235A58B0
:100240001A500433B3F5DE7FF9D1424B424A802184
:1002500003F8011B9342FBD1404B3C4A1A60404BD0
:100260000A221A70A3F5805324225A70A0221A7011
:100270009A799207FCD59A79D406FCD4394A9379B5
:1002800003F00C03082B374BF9D103221A714022DB
:100290005A719A799006FCD5324A9179314B4906C8
:1002A000FBD5314A314911600221516020221A7078
:1002B0009A7902F00C020C2AFAD12D4B2D4A1A60C1
:1002C0002D4B2E4A1A6000225A60072243F8042C54
:1002D0002B4AC3F80C2D62B601F0F2FB134B1B68DE
:1002E000DA0705D5274801F05DFB274B274A1A603E
:1002F000274B1B785B0609D5234C244A236893427D
:1003000004D1204801F04EFB0023236004F008FED6
:1003100002F066FC02F054FBFEE700BF0E20054031
:1003200030800440823F04000100002B14D00340C1
:1003300002D0074000E007406090FF1FC46100004A
:100340006087FF1F6090FF1F6495FF1F0082FF1FE3
:100350000000000000E400E05FE400E008ED00E0E1
:100360000050064000400640448004400000030165
:1003700004800440C010050014E000E0FF76010096
:10038000000020208E18EB561CE00340A5C3945AB1
:1003900000F00740FFFFFFFFFFFFFFFFFFFFFFFF32
:1003A000FFFFFFFFFFFFFFFFFFFFFFFFFFFFFFFF5D
:1003B000FFFFFFFFFFFFFFFFFFFFFFFFFFFFFFFF4D
:1003C000FFFFFFFFFFFFFFFFFFFFFFFFFFFFFFFF3D
:1003D000FFFFFFFFFFFFFFFFFFFFFFFFFFFFFFFF2D
:1003E000FFFFFFFFFFFFFFFFFFFFFFFFFFFFFFFF1D
:1003F000FFFFFFFFFFFFFFFFFFFFFFFFFFFFFFFF0D
:10040000FFFFFFFFFFFFFFFFFFFFFFFFFEFFFFFFFD
:1004100010B5054C237833B9044B13B10448AFF33E
:1004200000800123237010BD6090FF1F00000000BA
:10043000C461000008B5064B1BB106480649AFF37E
:1004400000800648036813B1054B03B1984708BD07
:1004500000000000C46100006490FF1F6090FF1F57
:100460000000000001600271704700BF10B4037902
:100470000268D418D35C6BB1202B0FD0631C1946D3
:1004800002790132027113F8012B202A07D0002AC9
:10049000F5D101E0002008E0204606E0214603797E
:1004A0000133037100230B7020465DF8044B704745
:1004B000704700BF054A82618160002202710270AC
:1004C0000922427001228270C2707047B10400009C
:1004D0000079704710B50C460846072101F04CFA28
:1004E000E379834214BF0020012010BD2DE9F041C3
:1004F00006460F461546806801F094F900244FF037
:1005000001080CE0E3B2AB4205D130463946FFF7B3
:10051000E1FF034668B90134E3B2AB4208D8B068E2
:100520003946424601F0A0F90028EBD1002300E053
:1005300000231846BDE8F08170B504460E46154606
:10054000806801F0A1F8A068314601F053F9A06875
:10055000BE21002201F01CF9A06801F03BF92870CF
:10056000A06801F037F96870A06801F033F9A8704D
:10057000A06801F02FF9E870A06801F02BF928714C
:10058000A06801F027F96871A06801F023F9A8714B
:10059000A06801F01FF9E871A06801F01BF928724A
:1005A000A06801F071F870BD10B51446FFF7C4FFE4
:1005B0002046082101F0E0F9237A834214BF00208D
:1005C000012010BD70B504460E461546806801F046
:1005D0005BF8A068314601F00DF9A0684E210022B9
:1005E00001F0D6F8A068A978002201F0D1F8A0683F
:1005F000E978002201F0CCF83378102B04D0A06801
:100600002979002201F0C4F8A06801F03DF8A06843
:100610004821227801F0BCF8237813B10A2001F0B8
:1006200039FAA06801F030F870BD00BF38B5044653
:100630000D46806801F028F8A068294601F0DAF834
:10064000A068B421002201F0A3F8A06801F082F8AC
:100650000546A06801F018F8D5F1010038BF002068
:1006600038BD00BF70B584B006460C46154601AAD9
:10067000FFF79AFFF8B12378102B1ED00B2D08D06E
:100680000C2D02D00A2D0CD107E07F238DF8083005
:100690000AE05F238DF8083006E03F238DF808302C
:1006A00002E01F238DF808303046214601AAFFF7EB
:1006B00089FF012002E0002000E0012004B070BDAD
:1006C00000B585B00B78102B1CD001AAFFF76CFF8A
:1006D000D0B19DF808303F2B09D002D81F2B08D08D
:1006E00009E05F2B12D07F2B05D10C200FE00A20F0
:1006F0000DE009200BE003F0F003F02B0CBF0C2001
:10070000002004E0092002E0002000E00B2005B0FA
:100710005DF804FB70B586B00446806801F082F88D
:100720000023237101251DE0204601A9FFF7D2FE19
:10073000C0B123782BB9204601A9FFF777FF00B19C
:100740002570204601A903AAFFF7F6FE6678204629
:1007500001A9FFF7B5FFB04238BF3046607023797A
:1007600001332371A06801A92A4601F07DF8002811
:10077000DAD106B070BD00BF00B585B001AAFFF7A1
:10078000DBFE9DF80400003018BF012005B05DF8C5
:1007900004FB00BF2DE9F84304460E46AAB1C37816
:1007A0009BB103788BB9174BD3F80090002598467E
:1007B00040F2ED2720462946FFF7DEFF28B9D8F89A
:1007C0000030C9EB0303BB42F4D933780A2B08D0BD
:1007D0000B2B0BD0092B0FD15E2001F05BF9BDE88C
:1007E000F883BC2001F056F9BDE8F88340F2771099
:1007F00001F050F9BDE8F88340F2EE2001F04AF92B
:10080000BDE8F8835092FF1F10B50446806800F0E1
:100810003BFFA06801F000F8A0684421227800F0B6
:10082000B7FFA37823B12046611C0022FFF7B2FF77
:1008300010BD00BF70B514461278607842EA0020FF
:100840000B78222B0FD002D8102B3AD054E0282B53
:1008500009D03B2B50D100B204F0BAF94FF07651D9
:1008600004F00AFA70BD23793F2B18D002D81F2B51
:100870001ED041E05F2B09D07F2B3DD100B204F0A8
:10088000A7F94FF0765104F0F7F970BD40F34E0030
:1008900004F09EF94FF0785104F0EEF970BD40F38A
:1008A0008D0004F095F94FF07A5104F0E5F970BD30
:1008B00040F3CC0004F08CF94FF07C5104F0DCF9EB
:1008C00070BDE67940F34E0004F082F94FF07A51A2
:1008D00004F0C8F80546A079301A04F079F9044606
:1008E000304604F071F90146204604F079FA0146D9
:1008F000284604F0B9F870BD70BD00BF30B585B0B2
:1009000005460C4601AAFFF74FFE28B128462146AE
:1009100001AAFFF78FFF00E0014805B030BD00BF1E
:100920000000FEC20078704708B5044904F0A4F93D
:100930004FF0844104F098F808BD00BF6666E63FBA
:100940002DE9F04107460E4690464B1E002B0CDD6C
:100950000446051F05EB81050020616844F8041B6F
:1009600004F082F8AC42F8D100E0002006F18043A8
:10097000013B47F82380414604F076F804463046B0
:1009800004F026F90146204604F02AFABDE8F08179
:10099000F8B58E4C23685B6820468D49062298473F
:1009A00023685B6820468B490722984723685B6869
:1009B0002046894901229847204601F007FF874BCE
:1009C0001B68012B26D123685B68204680490622DC
:1009D000984723685B682046814905229847236829
:1009E0005B6820467F490B22984723685B68204656
:1009F0007D490122984723685B6820467B490A228B
:100A0000984723685B68204673490122984720462F
:100A100001F0DCFE714B1B68002B27D16B4C236867
:100A20005B6820466A490622984723685B6820462F
:100A30006B490522984723685B68204669490B2269
:100A4000984723685B6820466749012298472368D6
:100A50005B68204666490722984723685B68204602
:100A60005D4901229847204601F0B0FE574C2368AB
:100A70005B68204656490622984723685B682046F3
:100A800057490522984723685B68204659490B223D
:100A900098472368544D5B682046294601229847B1
:100AA000554B1B68554981FB0321DB172046C3EBDF
:100AB000A11101F0D7FE23685B6820462946012278
:100AC000984723685B6820464D490722984723686A
:100AD0005B682046404901229847204601F076FE97
:100AE000484B1B68012B37D123685B682046384987
:100AF0000622984723685B682046394905229847B3
:100B000023685B68204640490922984723685B6850
:100B1000204629460122984723685B6820463B49C6
:100B20000222984723685B6820462946012298479D
:100B300023685B6820463649072298472046354B94
:100B4000196801F08FFE23685B6820462249012264
:100B50009847204601F03AFE2A4B1B68002B6DD1C6
:100B60001A4C23681A4F5B6820463946062298477C
:100B700023685B6820461749072298472368224E5E
:100B80005B6820463146092298472368124D5B680E
:100B90002046294601229847204601F017FE236887
:100BA0005B68204639460622984723685B682046E2
:100BB0000B490522984723685B6820463146092285
:100BC000984723685B68204626E000BF4893FF1FD4
:100BD000A0590000A8590000B05900006087FF1F0D
:100BE000B4590000BC590000B8590000C8590000B1
:100BF000D4590000DC5900006887FF1FD34D6210F4
:100C0000E85900004492FF1FA85A0000F059000064
:100C1000F45900004892FF1F354901229847236884
:100C20005B68204633490322984723685B68204667
:100C3000294601229847204601F0C8FD2E4B1B682B
:100C4000012B27D12D4C23685B6820462C490622B6
:100C5000984723685B6820462A49052298472368FD
:100C60005B68204628490A22984723685B6820462B
:100C70001F490122984723685B68204623490222C6
:100C8000984723685B6820462149012298472046FF
:100C900001F09CFD184B1B68002B27D1174C2368D3
:100CA0005B68204616490622984723685B68204601
:100CB00014490522984723685B68204612490A2296
:100CC000984723685B6820460949012298472368B2
:100CD0005B68204607490322984723685B682046E3
:100CE0000B4901229847204601F070FDF8BD00BF76
:100CF000B8590000FC5900000892FF1F4893FF1FDD
:100D0000A0590000B4590000005A0000F05900003A
:100D1000B059000008B5064803685B68054915220C
:100D200098470022044B1A60FFF732FE08BD00BF4F
:100D30004893FF1F0C5A00006087FF1F08B5064844
:100D400003685B680549152298470122044B1A6025
:100D5000FFF71EFE08BD00BF4893FF1F245A000086
:100D60006087FF1F10B5FFF781FB50B9084C23685F
:100D70005B68204607491E229847204601F026FD61
:100D800010BD04F0C9F8044B1860FFF701FE10BD58
:100D90004893FF1F3C5A00006887FF1F38B5FFF7D4
:100DA00065FB054650B9104C23685B6820460F4927
:100DB00027229847204601F009FD38BD0A4C2368D8
:100DC0005B6820460A4914229847204601F0FEFC41
:100DD000284604F0A1F8074B18600122064B1A6060
:100DE000FFF7D6FD38BD00BF4893FF1F5C5A0000D7
:100DF000845A00004892FF1F4492FF1F10B5084C10
:100E000023685B682046074915229847204601F071
:100E1000DDFC0022044B1A60FFF7BAFD10BD00BFD5
:100E20004893FF1F9C5A00004492FF1F2DE9F04198
:100E3000044600F108060C4DDFF83080012714F855
:100E4000013B0F2B05D82B685B68284641463A4684
:100E50009847284614F8011C1022002301F0C6FC14
:100E6000B442ECD1BDE8F0814893FF1FC85A00009E
:100E7000F8B5824C23685B68204681492A2298474E
:100E8000204601F0A3FC7F4B1878012100F0BEFD45
:100E90007D4D2846FFF73EFC41F2883000F0FAFD18
:100EA00023685B68204679491322984723685B686A
:100EB00020467749062298472846FFF709FB014656
:100EC00020460A22002301F091FC23685B6820463B
:100ED000704909229847204601F078FC23685B6836
:100EE00020466D49132298472846FFF71BFD48B15D
:100EF00023685B682046694902229847204601F032
:100F000065FC09E05D4C23685B6820466449032268
:100F10009847204601F05AFC5B4862490022FFF7DF
:100F2000E5FA48B9554C23685B6820465E492322A0
:100F30009847204601F04AFC53485C490122FFF7DC
:100F4000D5FA48B94D4C23685B682046584923229E
:100F50009847204601F03AFC484C23685B682046DD
:100F60005449122298474F4F3846FFF75FFF2046FB
:100F700001F02CFC23685B6820464F4912229847F9
:100F80004A4E3046FFF752FF204601F01FFC3E4D0F
:100F9000284639460C22FFF765FB284631460C22CD
:100FA000FFF760FB23685B68204644491522984799
:100FB00028463946FFF784FB014620460A220023D3
:100FC00001F014FC204601F001FC23685B68204618
:100FD0003B491522984728463146FFF771FB0146E9
:100FE00020460A22002301F001FC204601F0EEFB1E
:100FF000344B93F85030092B3ED8324901EBC302F1
:1010000031485060314A41F833205A1CD2B281F83D
:101010005020092A30D801EBC2002D4C44602D48E5
:1010200041F832009A1CD2B281F85020092A23D804
:1010300001EBC200284C4460284841F83200DA1C19
:10104000D2B281F85020092A16D801EBC200244CF4
:101050004460244841F832001A1DD2B281F8502071
:10106000092A09D801EBC2001F4C44601F4841F80F
:101070003200053381F85030F8BD00BF4893FF1FA0
:10108000085B00006487FF1F2892FF1F345B00008D
:10109000485B0000505B00005C5B0000F059000002
:1010A000FC5900000091FF1F705B00002092FF1FA1
:1010B000945B0000B85B0000CC5B0000E05B0000CC
:1010C000F85B00008091FF1F150D0000105C000010
:1010D0003D0D00001C5C0000650D0000285C000058
:1010E0009D0D0000345C0000FD0D0000405C000020
:1010F0002DE9F04184B0934C0025264665E0D4F8F4
:1011000080000368DB689847C0B294F87D3098424D
:1011100006D184F87C5084F858000123A36754E07A
:1011200094F87E20824241D1A26F002A4DD094F8DB
:101130005810994249D194F87C30002B45D1224473
:1011400082F8585094F8503003F1FF385FFA88F86D
:101150002BB308F1010804EBC80837464FF0010C27
:10116000386804F15901624610F8013B11F801EBAF
:101170000132D2B2734502D1002BF5D103E05BB945
:101180001EF0DF0F08D102A804F15801FFF76AF939
:101190007B6802A8984705E008374745E0D1636DB2
:1011A00003B19847A56784F87C500EE094F87C3032
:1011B0005BB9A26F531CA367224482F858001C2B12
:1011C00094BF0023012384F87C3001F011FA002839
:1011D00095DC5D4B1A685D4B1B68D21A5C4B1B6833
:1011E0009A4240F25C815B4B1878012100F0EAFBE7
:1011F000594C2046FFF708FB20465849FFF77EFB75
:10120000574B1860FFF790FB0246564B1860564B41
:101210001B68012B1ED1554B1B68012B0CD1544868
:10122000544B1968FFF78CFB534B1860534B1860F5
:101230004D4B1B68012B0DD14C4B1B68DBB94C4847
:101240004C4B1968464B1A68FFF77AFB4A4B1860FB
:101250004A4B1860444B1B686BB9444B1B68012B0D
:1012600040F012813F4B1A68444B1A600CE13C4B32
:101270001A68424B1A60414B1E68414C2046414956
:1012800000F07CF9E068026855683F490522A847EC
:101290006E230093204662215F22012300F0BAF9F9
:1012A000E0680268556839490222A847E568304677
:1012B00003F0C6F802460B4602210091284601F0D1
:1012C000DBFA204600F094F923483149FFF716FB7A
:1012D000234B1860FFF728FB0246224B1860224B75
:1012E0001B68012B1FD1214B1B68012B0CD12948F6
:1012F000204B1968FFF724FB274B1860274B186019
:10130000194B1B68012B0ED1184B1B68002B4BD1BE
:101310002048184B1968124B1A68FFF711FB1E4B37
:1013200018601E4B1860104B1B68002B3CD10F4BF4
:101330001B68012B40F0AE800A4B1A68174B1A60ED
:10134000A8E000BF8091FF1F5092FF1F6C91FF1F0C
:101350006887FF1F6487FF1F2892FF1F0091FF1FF0
:101360000492FF1F0C92FF1F4492FF1F6087FF1F14
:101370000891FF1F4892FF1F8090FF1F4C92FF1F94
:101380007091FF1F505C0000585C0000605C000022
:101390002092FF1F9C90FF1F8490FF1F7C90FF1FD7
:1013A000404B1A68404B1A603F4E35683F4C204610
:1013B0003F4900F0E3F8E068026857683D490422BD
:1013C000B8476E230093204672215F22012300F06C
:1013D00021F9E0680268576837490222B847E76890
:1013E000284603F02DF802460B46022500953846A4
:1013F00001F042FA204600F0FBF8304C23685B68AD
:1014000020462F490922984723685B6820462D49CA
:101410000F22984723685B6820462B49062298478D
:1014200023685B682046294906229847284B18689C
:1014300003F006F802460B460095204601F01CFA20
:1014400023685B682046234906229847306802F0EB
:10145000F7FF02460B460095204601F00DFA23687F
:101460005B6820461C4901229847204601F0AEF9EE
:10147000FFF78EFA194B1878002100F0A3FA184BE9
:101480001A68184B1A600AE0174B1B68002B3FF4D0
:10149000EEAEF0E6144B1B68002B81D084E704B05D
:1014A000BDE8F0810492FF1F7C90FF1F7091FF1F29
:1014B000505C0000645C0000605C00004893FF1F0B
:1014C0006C5C0000785C0000885C0000905C0000B0
:1014D0004C92FF1F985C0000B05900006487FF1F0A
:1014E0005092FF1F6C91FF1F6087FF1F38B5124C91
:1014F00012480021224600F02BF8114D2846022107
:1015000000F09EF90F482946FEF7D4FF0E4800214F
:10151000224600F0ADF80D4B212283F87D200D22EC
:1015200083F87E20C3F88040002283F850205A655B
:1015300083F87C209A6738BD4893FF1F1092FF1FE5
:101540008890FF1F2892FF1F7091FF1F8091FF1F3F
:1015500038B504460D46134602492A4600F004F801
:10156000204638BDA05C000010B402600022027169
:101570008160C3605DF8044B704700BFF8B5044656
:101580000D46C06803681B687B219847E768A6681A
:10159000304603F0A7FF02463B685B683846314699
:1015A000984723687BB1E06803681B683A21984735
:1015B000E7682668304603F095FF02463B685B68A3
:1015C000384631469847E06803681B687C21984795
:1015D000E668284603F086FF024633685B683046BB
:1015E00029469847E06803681B687C219847F8BD46
:1015F00010B5C46823681B6820467D2198472046A3
:1016000001F0E4F810BD00BF10B50446FFF7ACFFD1
:10161000204610BD2DE9F04182B00446154698469B
:1016200000238DF804303A228DF800208DF8011047
:101630009DF820308DF802308DF80350C66868465A
:1016400003F050FF024637687F6830466946B84766
:10165000232D05D0E06841460A22002301F0C6F898
:10166000E06803681B687C21984702B0BDE8F08100
:1016700038B504460D46134602492A46FFF7C4FF13
:10168000204638BDF05C0000426872B6002382F844
:10169000803262B67C20402103E0013810F0FF0068
:1016A0002AD00B46013B7FF4FDAF92F8003213F0D5
:1016B000FF0FF2D072B6012382F8003182F8803237
:1016C00062B64FF47053013B7FF4FDAF72B6002356
:1016D00082F880324FF40C63013B7FF4FDAF92F847
:1016E000003213F0FF0F14BF0020012062B64FF448
:1016F0004D53013B7FF4FDAF704700BF436811F0CD
:10170000010F13D072B6012283F8002183F88022E2
:101710004FF4A07101397FF4FDAF83F8802062B6E9
:101720004FF4DC63013B7FF4FDAF704772B60122DA
:1017300083F8002183F880224FF4026101397FF49D
:10174000FDAF83F8802062B6A023013B7FF4FDAF9C
:10175000704700BF436872B6012283F8802283F885
:1017600000216022013A7FF4FDAF002283F880223D
:101770004FF4A072013A7FF4FDAF93F80002C0B2BB
:1017800062B64FF4D463013B7FF4FDAF704700BFF6
:101790002DE9F04106460F469046082501243C42BB
:1017A00030460CBF00210121FFF7A8FF6400E4B21E
:1017B000013DF4D1B8F1000F09D172B6736800226F
:1017C00083F880227368012283F8002162B6BDE8A5
:1017D000F08100BFF8B507460824002601253846E9
:1017E000FFF7B8FF00B12E436D00EDB2013CF6D11A
:1017F0003046F8BDF8B507460E4655210022FFF7E2
:10180000C7FF002425463846315D2A46FFF7C0FF52
:101810000134082CF7D1F8BD08B5CC210022FFF720
:10182000B7FF08BD0023037483744374C373072395
:101830000021013BC2181172002BFAD1704700BF82
:1018400038B504460D460846002100F0DFF80123B4
:101850002370044B53F8353063602046FFF7E2FFF6
:10186000204638BDFC5D00002DE9F84F044689464E
:101870001546837C002B65D1FFF706FF034620B990
:1018800000222274A274627472E02DB12046F0210D
:101890000022FFF77DFF04E02046EC210022FFF745
:1018A00077FF01260027BB46B046B2462046FFF729
:1018B00051FF05462046FFF74DFF012D02D10128BB
:1018C00019D134E085421CD1257CA84506D2E31904
:1018D0001B7A1E420CBF0025012503E0A84514BF5A
:1018E000002501252DB9B8F1080F3AD884F81180E8
:1018F00037E0012D05D1E3191A7A32431A725546A1
:1019000004E0E3191A7A22EA06021A7220462946EE
:10191000FFF7F4FE08F101085FFA88F8760016F088
:10192000FF0602D10137FFB25646072FBED9B8F1E4
:10193000400F07D984F810B0BBF1000F13D1012379
:10194000A37410E000202074A074607403460FE0BC
:10195000E218127A09F803200133082BF8D1012389
:1019600006E0C346CDE7237A002BEBD00023EFE758
:101970001846BDE8F88F00BF10B403464C1EE4B211
:1019800051B1013404440020054913F8012B5040A3
:10199000085CA342F9D100E000205DF8044B7047D9
:1019A000FC5C0000044B00221A6004490A60044AEF
:1019B000106010221A60704714D0034004D0034016
:1019C00000D0034021281ED80F4B53F8303093F835
:1019D000802212F0FF0F08D019B1012283F8802075
:1019E0007047012283F800217047074B03EBC000CA
:1019F000436821B11A6842F003021A6070471A68FE
:101A000022F002021A607047FC5D000021281CD8F9
:101A10000E4B03EBC0035B68012908D10B4A52F857
:101A2000302082F880124FF4A2721A607047074A81
:101A300052F83020002082F8800219B94FF48072E9
:101A40001A60704740F203121A607047FC5D000094
:101A500072B60C4B1B680C4A12680C49096862B6D6
:101A600011F0806F02D0322B88BF0132C3F5BB3337
:101A7000FF330749A1FB03039B094FF47A7000FB76
:101A80000230704718E000E05092FF1F04ED00E0C4
:101A9000ABAAAAAA38B50546FFF7DAFF044625B96E
:101AA00038BD013D0AD004F57A74FFF7D1FF001B61
:101AB000B0F57A7FF5D200F0B7FFF6E738BD00BF8A
:101AC00010B5254B4FF400021A604FF080721A6077
:101AD0004FF000721A604FF080621A604FF000629F
:101AE0001A6000201D4B18604BF6FF71043319601B
:101AF00028231B4A1360083213600832136008322F
:101B00001360083213600832136008321360083221
:101B100013600922134C226004F5805404342060C1
:101B2000043421600434236008342360143C2260B0
:101B300004F5FE24043420600B4801600B490B605F
:101B400008310B600A4B1A6000F090FFFA20FFF793
:101B5000A1FF00F073FC10BD08E100E00480034029
:101B60000C8003400080034008800B400C800B4039
:101B700000800B4030B40E4B1B7843F002020D4C3A
:101B800004EBC20460600C48007800280CBF882475
:101B9000C82444EA0141074D45F8321080F00100A5
:101BA000054A107083F00103014A137030BC70477E
:101BB000BC92FF1F0080FF1F3593FF1F10B4431E10
:101BC000032B11D872B60A4A52F8230050B142686A
:101BD000074941F82320074A32F813400188611A67
:101BE00022F8131062B600E000205DF8044B704745
:101BF000AC92FF1F4C95FF1F013803280DD872B619
:101C0000074B53F820302BB1002001305B68002BCC
:101C1000FBD100E0002062B670470020704700BF93
:101C20000093FF1F38B572B601231B491B4C5A188D
:101C300012F8012C12F0080F24D09A0054F83250F8
:101C40006DB9164B03EBC20108304860144943F8E4
:101C50003210144B1A78013A1A7062B638BD42F04D
:101C6000010254F832506DB90C4B03EBC20108303D
:101C700048600D4943F832100A4B1A78013A1A703D
:101C800062B638BD0133052BD1D162B60022054BB7
:101C90001A7000F037FC38BD305F00000080FF1F75
:101CA000880040002A93FF1FC800400010B4431E64
:101CB000032B37D8400140F010001C4A104472B684
:101CC0001B4AD25C032A09D8DFE802F019021B057F
:101CD0000830022216E00830042213E0154A52F8B8
:101CE00023201AB9134A42F8231003E0124A52F88B
:101CF00023205160104A42F8231062B612E00322FA
:101D000000E005220A4CE25401F10803436000F0B0
:101D10000803002B0CBF8823C8230A8843EA024328
:101D2000036062B65DF8044B704700BF0080FF1F80
:101D30006892FF1F0093FF1F1093FF1F2DE9F84FBC
:101D4000A34CDFF8E092DFF8E0A2DFF8E0B22578FC
:101D5000EDB215F0040F1DD09E4B1B7813F0FF0F52
:101D600016D09D4B1B7803F0FF022BB1531EDBB244
:101D7000994A137003B900BE984B1B7803F0FF0219
:101D800033B1531EDBB2954A13700BB900F0FAFC65
:101D90000423237015F0080F00F0E48299F8003056
:101DA000DBB21D0940F021828D4D9E0805EBC60374
:101DB0005A6855F83630C3F38303013B0C2B00F20D
:101DC0001082DFE813F0CB01CB010E020E020E02EF
:101DD0000E020E020E02E8010E020E020E020D00AD
:101DE000804913680B6052684A607F4A45F8362084
:101DF00000227E490A607A490A618A6101217C4A8F
:101E000011709BB240F28162934218D8B3F5D06F43
:101E10002ED2B3F5817F00F01E8106D8802B00F012
:101E2000C980822B00F0CC8066E140F202329342FE
:101E300000F02681B3F5A06F00F062815CE142F210
:101E40002102934200F0868107D8B3F5086F00F0B5
:101E5000AB80B3F5106F11D04EE142F221229342D4
:101E600000F0418142F22132934200F0498143E186
:101E7000604B5D68002D40F0188130E1594B9A7835
:101E8000544B1A70564D05F180062B6A13F0800FE3
:101E900003D0686A083800F035FB0835B542F4D144
:101EA000DFF88C8100263746534AB05828B1456880
:101EB00000F028FB0DB12846F9E700234E49735086
:101EC0004E4AB3504E4BF05828B1456800F01AFB0B
:101ED0000DB12846F9E7002349497350494AB350E8
:101EE00028F8023F484BFB5C023B032B0AD8DFE893
:101EF00003F0020602060022434BDA5502E00122FB
:101F0000414BDA5501370436102ECDD100223F4B1C
:101F10001A7001253E4EDFF81C81314F05EB080396
:101F200013F8013C06F8043B13F0080F2DD000F025
:101F3000C9FA48B1A90007EB451200F10803536044
:101F4000344A47F8312007E0AB00002247F833203D
:101F50002E4B1A7801321A7000F0B4FA58B1AB0067
:101F600043F0010307EBC30100F108024A601E4A77
:101F700047F8332009E0AB0043F00103002247F8A3
:101F80003320224B1A7801321A70AA0042F0020163
:101F9000002347F8313042F0030247F83230013570
:101FA0001D4B9E42BAD11EE20A4B1B781B4D2B7073
:101FB0000127AAE0194D00232B706B700227A4E0C3
:101FC000084B9B88042B37D90F22154B1A70C1E0A0
:101FD000802007403493FF1FBD92FF1F3693FF1FE1
:101FE0000080FF1F2093FF1FC80040005492FF1F76
:101FF0003593FF1F345F0000AC92FF1F5892FF1F04
:102000000093FF1F1093FF1F6892FF1F2A93FF1F6B
:10201000C420074088004000D42007402C93FF1FB5
:10202000C020074090200740942007409820074098
:102030004A95FF1F305F0000A04A002111705170C7
:102040009F4A12F8233013F0020F5CD09B4D0123FE
:102050002B70022759E09B4B9B8803F07F03042BD6
:1020600002DC984A52881AB10F22954B1A7071E01F
:10207000934A12F8231021F0020102F82310B2E172
:10208000904B9B8803F07F03042B02DC8D4A52881F
:102090001AB10F228A4B1A705CE0894A12F8231099
:1020A00041F0020102F823109DE1864B5E889F8873
:1020B000854BA3F10C02114633F80C0CB04209D148
:1020C00033F80A0CB84205D1360A032E0CBF2F781C
:1020D00017891AE00D690C330C32002DEBD10F2259
:1020E000774B1A7036E0794B1A68794B1A60754B4A
:1020F0009A78784B1A7076E10F22714B1A7029E0AA
:1021000000273D4601E002276C4D6E4BDB889F4265
:1021100028BF1F46402F34BF3E4640262846314642
:10212000FFF728FD3544BF1B03D13F2E00F260812D
:1021300010E0402F34BF3E46402628463146FFF788
:1021400019FD3544BF1B01D13F2E03D9624B1D60E1
:10215000624B1F8001238AF8003042E0594B1988F6
:1021600042F22103994212D15D4BD81D12F8011B96
:1021700003F8011F8342F9D15A4B1B68862B02D109
:102180000F22594B1A7000200146FFF7F3FC574B02
:1021900045F8363025E0504B1E68BEB14F4FB7F8BA
:1021A0000080B8F1400F34BF4546402530462946EF
:1021B000FFF7E0FCC5EB08039BB23B800BB9402D59
:1021C00001D1354400E00025434B1D603D4B1B8889
:1021D000B3F5A06F05D13B4B00225A709B788BF86A
:1021E000003001238AF80030B9E0414E9F0806EB29
:1021F000C708D8F80420A2F10800013DEDB213F0A1
:10220000080F47D000F07EF93A4B53F825304BB316
:102210005A68384941F8252003F10802C8F804201B
:10222000354A525D032A12D8DFE802F002060A0E90
:102230000321314A51550AE002212F4A515506E047
:1022400005212D4A515502E004212B4A515518F021
:10225000080F0CBF8822C8221B8842EA034346F8B5
:1022600037307CE0244B5B5D032B0BD8DFE803F0B9
:10227000777702060022204B5A5570E001221E4B50
:102280005A556CE018F0080F0CBF022203221A4BBB
:102290005A5564E056F837301B0C22F8083C002BE6
:1022A00055D0002322F8063C42F8043C134B53F867
:1022B00025302BBB114B43F8250025E02C93FF1F45
:1022C000C02007402093FF1F405F00005092FF1F77
:1022D0005C95FF1F4493FF1F5492FF1F2893FF1F1D
:1022E0005395FF1F5495FF1FBD92FF1FC80040006C
:1022F0000080FF1F0093FF1F6892FF1FAC92FF1F1B
:102300003F4B53F8253058603D4B43F825003D4B7B
:1023100033F8151032F8082C0A4423F8152000F081
:10232000D1F860B100F10803C8F8043018F0080FC4
:10233000354B364A08BF134646F837300FE00023C6
:1023400046F83730324B1A7801321A7007E018F02D
:10235000080F2D4B2D4A08BF134646F83730082387
:102360002370F4E415F0010F22D02A4902230B70E8
:102370000022294B1A70294B24481860284C5C60B5
:1023800098602848D8601A619A610D20264B187011
:10239000FF23264803700838037018300270244A5F
:1023A00013709F22234B1A7001230B70BDE8F88F26
:1023B00015F0800F05D00D221B4B1A708022403B78
:1023C0001A7015F0020F06D0184B1A78D2B21A7094
:1023D0000222083B1A7015F0100F0ED01022164B77
:1023E0001A70BDE8F88F00200146FFF7C3FBB1E685
:1023F00028460021FFF7BEFBACE6BDE8F88F00BF22
:102400005892FF1F4C95FF1FC800400088004000F5
:102410002A93FF1F94200740BC92FF1F0080FF1FDC
:102420006C92FF1FC092FF1FC0200740882007400A
:102430008C200740842007408020074008B501F029
:1024400095FC00231B491A465A50C81842600833AD
:10245000882BF9D1184B1A6842F480221A60154B68
:10246000C3F30721154A1170C3F3074114321170E9
:102470001B0E04321370FF23343A137008321370AA
:10248000783A137001238432137000216C3211707A
:102490007C3A137070220A4B1A704FF40072A3F248
:1024A00041331A60102203F1C04303F5C8231A70A8
:1024B00008BD00BF0080FF1F348004409C200740FF
:1024C00049E400E072B60D4B1A68B2FA82F30B2BA6
:1024D00002D962B6002070474FF00041D94022EA8D
:1024E000010206490A6062B6054903EBC303DB003B
:1024F000C8180022CA504260704700BF6C87FF1F97
:102500000084FF1F08B50F4BC31A0F4AA2FB031329
:102510001B090B2B14D80D4A12783AB10C4A1278C9
:1025200012F0FF0F02D0FFF77DFB08BD72B6094A1B
:102530004FF0004121FA03F311681943116062B6AC
:1025400008BD00BF0084FF1F398EE3382A93FF1FA8
:102550003493FF1F6C87FF1F10B5134B1B6853B9D3
:10256000124B1B7813F0FF0F18D00320FFF726FB48
:102570000D4B1860A8B10C4B186843885A1C0344D3
:102580001C7A03889A4206D3FFF7BCFF0022064B51
:102590001A60204610BD4280204610BD4FF0FF302B
:1025A00010BD4FF0FF3010BD4093FF1F3493FF1F4D
:1025B00008B50D4B1B6883B90C4B1B7813F0FF0F4C
:1025C00008D00320FFF7FAFA074B186028B94FF03C
:1025D000FF3008BD4FF0FF3008BD034B1B685A8821
:1025E0001344187A08BD00BF4093FF1F3493FF1FA8
:1025F000044B9888044B1B681BB11A885B88D31A5C
:10260000184470474C95FF1F4093FF1F2DE9F0477A
:1026100004460122374B1A700E46002964D0DFF8B9
:10262000E080DFF8E0909A46334FD8F8003083BB63
:1026300099F8003013F0FF0F06D100222D4B1A70CD
:102640004FF0FF30BDE8F0874AF2F9250420FFF78C
:10265000D3FA07280AD801238AF80030FFF732FF9F
:10266000C8F80000A8B900238AF80030013D01D065
:102670003B7833B10122204B1A704FF0FF30BDE898
:10268000F08700F0D1F999F8003013F0FF0FDDD199
:10269000D3E700233B70D8F800104A88C2F1400508
:1026A000AE4238BF354602F108030B442A444A8043
:1026B000761B3DB1254414F8012B03F8012BAC42E5
:1026C000F9D100E025464B883F2B07D940230B80EA
:1026D0000420FFF7EBFA0023C8F800300522074B6F
:1026E0001A700EB12C46A0E70020024B1870BDE80E
:1026F000F08700BF3793FF1F3C93FF1F3693FF1FE8
:102700003893FF1F3493FF1F00B583B002AB03F86B
:10271000010D18460121FFF779FF03B05DF804FBB6
:1027200010B5144B1B7813F0FF0F21D00122124B70
:102730001A70124B196851B10024114B1C704B8850
:102740000B800420FFF7B2FA0C4B1C600DE0FFF782
:10275000B9FE014630B10022094B1A700420FFF780
:10276000A5FA02E00122064B1A700022024B1A70F1
:1027700010BD00BF3493FF1F3793FF1F3893FF1F17
:102780003693FF1F08B50E4B1B7813F0FF0F16D1C1
:102790000C4B196841B14B880B800420FFF786FA77
:1027A0000022084B1A6008BDFFF78CFE014618B1E5
:1027B0000420FFF77BFA08BD0122034B1A7008BD05
:1027C0003793FF1F3893FF1F3693FF1F00B583B069
:1027D000054B1B88ADF8043003685B6801A9022231
:1027E000984703B05DF804FB0C5F0000F0B58BB0B8
:1027F000164622B903681B68C9B298472FE0012A20
:1028000008BF0A2621B930228DF82520212417E09F
:1028100021243746B1FBF6F506FB1515EDB222462D
:10282000092D94BF30353735EDB20DF1280E7244C5
:1028300002F8245CB1FBF7F111B1013CE4B2E9E725
:1028400033B1013CE4B20AAB23442D2203F8242C1B
:1028500003685B6801A92144C4F1220298470BB0C8
:10286000F0BD00BF08B50029BABF49422D2300239F
:102870000A22FFF7BBFF08BD2DE9F04F87B0814664
:1028800016461F469DF84080104619460022002338
:1028900002F09CF828B107F100431F464FF0010AEF
:1028A00001E04FF0000AB8F1000F6ED04FF0000BBE
:1028B0000022414B3EA5D5E9004510461946224667
:1028C0002B4601F011FE02460B460BF1010B5FFA9D
:1028D0008BF18845F1D82AE03E46204629465246EB
:1028E0005B4601F001FE04460D4602F097F8C0B2C7
:1028F000771CFFB206AB1E4400F1300306F8103C13
:1029000001F08CFD02460B462046294601F038FCBA
:1029100004460D464745DFD101E04FF00108D9F8E4
:1029200000305B68484602A9424698473CE0304682
:10293000394601F027FC04460D4602F06FF80646C2
:1029400001F05CFD02460B462046294601F018FCCA
:1029500004460D46484631460A225346FFF746FFD5
:1029600001902E238DF80830B8F10F0F34BF434685
:102970000F23002BD1D003F101085FFA88F801265C
:102980004FF0000ADFF834B0A7E73046394600229E
:10299000094B01F0F7FB02F041F8014648460A22D4
:1029A0005346FFF723FF0190019807B0BDE8F08F71
:1029B000000000A09999B93F0000E03F00002440CA
:1029C00008B5FEF755FAFEF793FB00F02DF8FAE78D
:1029D00008B5FFF70DFE08BD08B5FFF7BDFD08BD42
:1029E00008B5FFF7E5FD08BD08B5FFF799FE08BD7E
:1029F00008B50846FFF788FE08BD00BF08B50846C1
:102A00001146FFF703FE08BD704700BF044B0022CC
:102A10001A714FF47A7199601A73024A1A607047FA
:102A20004893FF1F185F000008B50F4B1B78CBB908
:102A300001220D4B1A70FFF7DBFD08B1FFF7E4FF31
:102A400000F008FB08B101F05BFA00F001FE08B1EC
:102A500001F0ECFA01F0A0F808B101F07DFB0022D2
:102A6000014B1A7008BD00BF5893FF1F60223A4BFC
:102A70001A70E12201331A70384B1B78082B10D1E1
:102A8000012203F1804303F56C331A6013233449A8
:102A90000B6001F5FF2101F2FC710A60314A1360FD
:102AA0001FE00A2B0DD139222F4B1A6013232C491A
:102AB0000B6001F5FF2101F2FC710A60294A1360E5
:102AC0000FE00C2B0CBF35223D22274B1A6012233E
:102AD00023490B6001F5FF2101F2FC710A60214AD4
:102AE0001360224B1B7833B10123214A136002F596
:102AF0000022136005E000231D4A136002F5002246
:102B000013601C4B1B78012B06D880231A4A1360D4
:102B100002F5002213601AE0042B06D88423164A1B
:102B2000136002F50022136011E0082B06D88523FC
:102B3000114A136002F50022136008E0102B94BFC5
:102B4000862387230C4A136002F5002213600122BA
:102B50000A4B1A70704700BF004007407087FF1F84
:102B60000CB003400CB00B4008B003405A93FF1F59
:102B700020B003407187FF1F24B003405993FF1F0B
:102B8000024B1A6801321A60704700BF5092FF1F53
:102B900008B50D4C236813F4802F01D0FFF7CEF851
:102BA000236813F4806F01D000F0DEFA236813F479
:102BB000006F01D000F0D6FD236813F4805FE9D0E8
:102BC00001F060F8E6E700BF3480044008B5FFF785
:102BD000DFFF00BF1022014B1A8070470020054024
:102BE000704700BF024A13681844106018467047C7
:102BF0007487FF1FEFF31383ABB9EFF31083ABB907
:102C0000EFF3058323B10F2B05D9094A985C03E044
:102C10004FF4807000E00020EFF311833BB183425A
:102C200038BF184670474FF0FF307047002070479C
:102C3000F0E300E030B40023B0FBF2F402FB140434
:102C40001D46092C94BF30343734E4B2CC54B0FB69
:102C5000F2F008B10133EFE70D4400226A709342AD
:102C600007DD885CCC5C8C54C8540132013B9A422D
:102C7000F7DB084630BC7047194B1A6842F4806293
:102C80001A600023174A1370174A1370174A1370FB
:102C9000174A1370174A137040F21332164B1A601A
:102CA0004FF4517204331A60C0F34432134B1A705C
:102CB000C0F347125A7000F01F00987204229A70F5
:102CC0000221D9745A7588221A743C22DA70402283
:102CD0000B4B1A704FF40052A3F229331A6070475D
:102CE00034800440E493FF1F6193FF1FEC93FF1FA8
:102CF000E593FF1F6093FF1F40A0044000A0064023
:102D00002DE400E0164B9B7803F0EC0300F0030287
:102D1000134310F0040F18BF43F01003104A9370D0
:102D200000F00F03042B04D11346927942F04002C5
:102D30009A710B4B5A7902F0EF0210F0100F18BF86
:102D400042F01002064B5A719B7903F0EF0310F02A
:102D5000200F18BF43F01003014A9371704700BF62
:102D600000A0064010B5144B1B6813F4806F21D0EF
:102D7000124B1B7813F0FF0F06D0104CFFF754FED8
:102D8000237813F0FF0FF9D14FF400520C4B1A6067
:102D900000230C4AD37040F203120B490A6004313D
:102DA0000A600A4A13700A4A13700A4B1B680BB177
:102DB00001221A7010BD00BF348004406093FF1FD1
:102DC00084E100E000A0064040A00440E493FF1F1F
:102DD0006193FF1F5C93FF1F10B50446094A1378E7
:102DE00013F0FF0FFBD120460121FEF70FFE204616
:102DF0000021FEF7E7FD044B53F83420034B1A6023
:102E000010BD00BF6093FF1FFC5D0000E893FF1F33
:102E100010B50D4B1B6813F4806F12D021280CD80D
:102E20000A4C0B4B53F8303023600121FEF7EEFDC6
:102E3000236800221A70012010BD0020034B186087
:102E400010BD002010BD00BF348004405C93FF1F04
:102E5000FC5D0000114B1B6813F4806F1BD012281F
:102E600004D140F202320E4B1A600DE0142804D156
:102E700040F202320B4B1A6006E00B4B5A7B02F019
:102E8000FE025A7300207047074B5A7B42F0010242
:102E90005A73012070470020704700BF34800440FF
:102EA0000CA0044014C0044000A006402DE9F041ED
:102EB00007461F4B1B6813F4806F37D01D4B1B68F0
:102EC0000BB101221A701C4B1C780134402C28BF16
:102ED00000241A4D1A4EDFF86C8017E0FFF78AFEC7
:102EE00040280FDC337913F0800F0FD02B7801339B
:102EF000402B28BF002318F80320D2B2F271DBB2B6
:102F00002B7003E0FF2801DDFFF78EFD2B78DBB28D
:102F10009C42E3D0FFB20B4B1F5501220A4B1A70A3
:102F2000E4B2054B1C70BC22054BDA70BDE8F081A1
:102F300034800440E893FF1FEC93FF1FE593FF1FCD
:102F400000A006406493FF1F6093FF1F2DE9F84F18
:102F50000746284B1B6813F4806F49D0264B1B682B
:102F60000BB101221A7007EB010B5F453DD2DFF870
:102F70009890224EDFF88C80DFF890A099F80040FE
:102F80000134402C28BF00243578EDB2A54220D171
:102F9000BC2388F80330FFF72DFE402811DC98F899
:102FA000043013F0800F10D033780133402B28BF4A
:102FB00000231AF80320D2B288F80720DBB233705E
:102FC00003E0FF2801DDFFF72FFD3378DBB29D42E0
:102FD000E1D017F8013B0AF804300122084B1A70BF
:102FE000E4B289F800405F45C8D1BC22054BDA70D5
:102FF000BDE8F88F34800440E893FF1FE593FF1F7E
:103000006093FF1F00A00640EC93FF1F6493FF1F17
:1030100010B5064B1B7813F0FF0F06D0034CFFF7DB
:1030200003FD237813F0FF0FF9D110BD6093FF1F4C
:10303000064B1B78DBB2064A1278D2B293422CBF01
:103040003F3202F1FF32D01A704700BFEC93FF1FEE
:10305000E593FF1F054B1878C0B2054B1B78DBB218
:10306000984238BF4030C01A704700BFE493FF1F3A
:103070006193FF1F10B4184B1A78D2B2174B1B780C
:10308000DBB29A4218D001333F2B18D81449C85CE0
:10309000C0B2DCB211490C7012490968C9B19A4238
:1030A00003D300E00023D31A01E04032D31A1A2BD5
:1030B0000FDC00230B700CE04FF0FF3009E0084BF1
:1030C0001878C0B20021054B1970064B1968002909
:1030D000E8D15DF8044B7047E493FF1F6193FF1F35
:1030E000A493FF1F5C93FF1F094B1A78D2B2094BC0
:1030F0001B78DBB29A4207D00133402B28BF002354
:10310000054AD05CC0B270474FF0FF30704700BF37
:10311000E493FF1F6193FF1FA493FF1F0D4B1B68D8
:1031200013F4806F14D00C4BDA7802F0CB02DA7013
:1031300040225A74DA7842F03402DA70074B1A7877
:10314000D2B2074B1A70074B1B680BB100221A70E2
:10315000704700BF3480044000A006406193FF1F09
:10316000E493FF1F5C93FF1F70B43D4B1B7913F07A
:10317000300F33D072B63A4B9B7D03F0FF022BB970
:10318000374BDA7940225A7462B627E062B6354B83
:103190001978C9B2344B1C78E4B2314D334EEB7917
:1031A000D8B24B1C402B28BF0023A3421CBFF054B5
:1031B0001946531E13F0FF02F1D1CAB2294B1A70FF
:1031C0002B4B1B6853B1A1422EBFC4EB0101C4F1CC
:1031D000400409192729C4BF01221A70204BDA784C
:1031E000D2B212F0800F27D01B7913F0800F23D0BA
:1031F000204B1C78E4B2204B1B78DBB29C4210D0F1
:1032000017491E4D01E0A3420BD00133402B28BFCC
:1032100000230879E85CC0B2C871087DC0B20728F5
:10322000F1D9DBB214490B700D4B1B7913F0800FF1
:1032300002D07C210A4BD97012F0400F0ED0084BFF
:103240001B7913F0400F09D000220D4B1A700D4B63
:103250001B6803B11A703C22014BDA7070BC7047D6
:1032600000A00640E493FF1F6193FF1FA493FF1F7C
:103270005C93FF1FEC93FF1FE593FF1F6493FF1FF9
:103280006093FF1FE893FF1F194B1A6842F4006216
:103290001A600023174A1370174A1370174A1370E5
:1032A000174A1370174A137040F21332164B1A6004
:1032B0004FF4517204331A60C0F34432134B1A7046
:1032C000C0F347125A7000F01F00987204229A70DF
:1032D0000221D9745A7588221A743C22DA7040226D
:1032E0000B4B1A704FF40042A3F22B331A60704755
:1032F000348004406094FF1FF593FF1F6894FF1F04
:103300006194FF1FF493FF1F0CB0044000B006400F
:103310002FE400E0164B9B7803F0EC0300F003026F
:10332000134310F0040F18BF43F01003104A9370BA
:1033300000F00F03042B04D11346927942F04002AF
:103340009A710B4B5A7902F0EF0210F0100F18BF70
:1033500042F01002064B5A719B7903F0EF0310F014
:10336000200F18BF43F01003014A9371704700BF4C
:1033700000B0064010B5144B1B6813F4006F21D049
:10338000124B1B7813F0FF0F06D0104CFFF74CFBCD
:10339000237813F0FF0FF9D14FF400420C4B1A6061
:1033A00000230C4AD37040F203120B490A60043127
:1033B0000A600A4A13700A4A13700A4B1B680BB161
:1033C00001221A7010BD00BF34800440F493FF1F27
:1033D00084E100E000B006400CB004406094FF1FA0
:1033E000F593FF1FF093FF1F10B50446094A1378A9
:1033F00013F0FF0FFBD120460121FEF707FB20460B
:103400000021FEF7DFFA044B53F83420034B1A6017
:1034100010BD00BFF493FF1FFC5D00006494FF1F0C
:1034200010B50D4B1B6813F4006F12D021280CD877
:103430000A4C0B4B53F8303023600121FEF7E6FABB
:10344000236800221A70012010BD0020034B186071
:1034500010BD002010BD00BF34800440F093FF1F5A
:10346000FC5D00000D4B1B6813F4006F13D0172890
:103470000AD140F202320A4B1A600A4B5A7B42F0E0
:1034800001025A7301207047064B5A7B02F0FE027C
:103490005A73002070470020704700BF34800440FA
:1034A00008B0044000B006402DE9F04107461F4B2C
:1034B0001B6813F4006F37D01D4B1B680BB1012242
:1034C0001A701C4B1C780134282C28BF00241A4D7C
:1034D0001A4EDFF86C8017E0FFF78CFB40280FDCFA
:1034E000337913F0800F0FD02B780133282B28BFAE
:1034F000002318F80320D2B2F271DBB22B7003E084
:10350000FF2801DDFFF790FA2B78DBB29C42E3D075
:10351000FFB20B4B1F5501220A4B1A70E4B2054B48
:103520001C70BC22054BDA70BDE8F0813480044089
:103530006494FF1F6894FF1F6194FF1F00B0064052
:10354000F893FF1FF493FF1F2DE9F84F0746284B10
:103550001B6813F4006F49D0264B1B680BB1012286
:103560001A7007EB010B5F453DD2DFF89890224EB1
:10357000DFF88C80DFF890A099F800400134282C07
:1035800028BF00243578EDB2A54220D1BC2388F8AD
:103590000330FFF72FFB402811DC98F8043013F0BC
:1035A000800F10D033780133282B28BF00231AF85E
:1035B0000320D2B288F80720DBB2337003E0FF2883
:1035C00001DDFFF731FA3378DBB29D42E1D017F825
:1035D000013B0AF804300122084B1A70E4B289F862
:1035E00000405F45C8D1BC22054BDA70BDE8F88FBA
:1035F000348004406494FF1F6194FF1FF493FF1F05
:1036000000B006406894FF1FF893FF1F10B5064BEB
:103610001B7813F0FF0F06D0034CFFF705FA237851
:1036200013F0FF0FF9D110BDF493FF1F064B1B7869
:10363000DBB2064A1278D2B293422CBF273202F193
:10364000FF32D01A704700BF6894FF1F6194FF1FBC
:10365000054B1878C0B2054B1B78DBB2984238BFD7
:103660004030C01A704700BF6094FF1FF593FF1FE2
:1036700010B4184B1A78D2B2174B1B78DBB29A42AF
:1036800018D001333F2B18D81449C85CC0B2DCB243
:1036900011490C7012490968C9B19A4203D300E07C
:1036A0000023D31A01E04032D31A1A2B0FDC002377
:1036B0000B700CE04FF0FF3009E0084B1878C0B2F7
:1036C0000021054B1970064B19680029E8D15DF8F7
:1036D000044B70476094FF1FF593FF1F2094FF1F5A
:1036E000F093FF1F094B1A78D2B2094B1B78DBB25B
:1036F0009A4207D00133402B28BF0023054AD05CF3
:10370000C0B270474FF0FF30704700BF6094FF1F9A
:10371000F593FF1F2094FF1F0D4B1B6813F4006FE0
:1037200014D00C4BDA7802F0CB02DA7040225A74D3
:10373000DA7842F03402DA70074B1A78D2B2074BCB
:103740001A70074B1B680BB100221A70704700BF3C
:103750003480044000B00640F593FF1F6094FF1FC3
:10376000F093FF1F70B43D4B1B7913F0300F33D033
:1037700072B63A4B9B7D03F0FF022BB9374BDA79D7
:1037800040225A7462B627E062B6354B1978C9B246
:10379000344B1C78E4B2314D334EEB79D8B24B1C2C
:1037A000402B28BF0023A3421CBFF0541946531ED0
:1037B00013F0FF02F1D1CAB2294B1A702B4B1B68D0
:1037C00053B1A1422EBFC4EB0101C4F14004091959
:1037D0002729C4BF01221A70204BDA78D2B212F026
:1037E000800F27D01B7913F0800F23D0204B1C783B
:1037F000E4B2204B1B78DBB29C4210D017491E4D1F
:1038000001E0A3420BD00133282B28BF0023087905
:10381000E85CC0B2C871087DC0B20728F1D9DBB23C
:1038200014490B700D4B1B7913F0800F02D07C21D3
:103830000A4BD97012F0400F0ED0084B1B7913F0D1
:10384000400F09D000220D4B1A700D4B1B6803B1BD
:103850001A703C22014BDA7070BC704700B0064011
:103860006094FF1FF593FF1F2094FF1FF093FF1F2D
:103870006894FF1F6194FF1FF893FF1FF493FF1FCD
:103880006494FF1F174B1A6842F480521A60002399
:10389000154A1370154A1370154A1370154A1370A0
:1038A000154A137040F21331144A11604FF45171EC
:1038B00004321160C0F34431114A1170C0F3471152
:1038C000517000F01F009072937013742C23D3700A
:1038D00040220C4B1A704FF40032A3F22D331A60C1
:1038E000704700BF34800440DC94FF1F7194FF1FB9
:1038F000E494FF1FDD94FF1F7094FF1F08C0044075
:1039000000C0064031E400E0164B9B7803F0EC0366
:1039100000F00302134310F0040F18BF43F010032C
:10392000104A937000F00F03042B04D113469279D0
:1039300042F040029A710B4B5A7902F0EF0210F0FC
:10394000100F18BF42F01002064B5A719B7903F01A
:10395000EF0310F0200F18BF43F01003014A9371DA
:10396000704700BF00C0064010B5144B1B6813F42D
:10397000805F21D0124B1B7813F0FF0F06D0104C44
:10398000FFF752F8237813F0FF0FF9D14FF400320C
:103990000C4B1A6000230C4AD37040F203120B49FF
:1039A0000A6004310A600A4A13700A4A13700A4B0B
:1039B0001B680BB101221A7010BD00BF3480044097
:1039C0007094FF1F84E100E000C0064008C004407E
:1039D000DC94FF1F7194FF1F6C94FF1F10B5044609
:1039E000094A137813F0FF0FFBD120460121FEF79F
:1039F0000DF820460021FDF7E5FF044B53F8342075
:103A0000034B1A6010BD00BF7094FF1FFC5D0000E7
:103A1000E094FF1F10B50D4B1B6813F4805F12D0AC
:103A200021280CD80A4C0B4B53F83030236001216D
:103A3000FDF7ECFF236800221A70012010BD002062
:103A4000034B186010BD002010BD00BF348004403F
:103A50006C94FF1FFC5D00000D4B1B6813F4805F2E
:103A600013D00E280AD140F202320A4B1A600A4BD8
:103A70005A7B42F001025A7301207047064B5A7B71
:103A800002F0FE025A73002070470020704700BF0A
:103A90003480044004C0044000C006402DE9F041D9
:103AA00007461F4B1B6813F4805F37D01D4B1B6804
:103AB0000BB101221A701C4B1C780134282C28BF32
:103AC00000241A4D1A4EDFF86C8017E0FFF792F8C9
:103AD00040280FDC337913F0800F0FD02B7801339F
:103AE000282B28BF002318F80320D2B2F271DBB2D2
:103AF0002B7003E0FF2801DDFEF796FF2B78DBB289
:103B00009C42E3D0FFB20B4B1F5501220A4B1A70A7
:103B1000E4B2054B1C70AC22054BDA70BDE8F081B5
:103B200034800440E094FF1FE494FF1FDD94FF1FE6
:103B300000C006407494FF1F7094FF1F38B50546FF
:103B40000C4629B115F8010BFFF7A8FF013CF9D18C
:103B500038BD00BF10B5064B1B7813F0FF0F06D021
:103B6000034CFEF761FF237813F0FF0FF9D110BD6E
:103B70007094FF1F064B1B78DBB2064A1278D2B254
:103B800093422CBF273202F1FF32D01A704700BF98
:103B9000E494FF1FDD94FF1F054B1878C0B2054B5E
:103BA0001B78DBB2984238BF4030C01A704700BF64
:103BB000DC94FF1F7194FF1F10B4184B1A78D2B217
:103BC000174B1B78DBB29A4218D001333F2B18D821
:103BD0001449C85CC0B2DCB211490C7012490968C2
:103BE000C9B19A4203D300E00023D31A01E0403266
:103BF000D31A1A2B0FDC00230B700CE04FF0FF30B0
:103C000009E0084B1878C0B20021054B1970064B2B
:103C100019680029E8D15DF8044B7047DC94FF1F58
:103C20007194FF1F9C94FF1F6C94FF1F094B1A781F
:103C3000D2B2094B1B78DBB29A4207D00133402B3A
:103C400028BF0023054AD05CC0B270474FF0FF3058
:103C5000704700BFDC94FF1F7194FF1F9C94FF1FEF
:103C6000054B1A78D2B2054B1A70054B1B680BB185
:103C700000221A70704700BF7194FF1FDC94FF1F71
:103C80006C94FF1F2F4B1B7913F0200F23D02D4B6B
:103C9000DB79D9B22C4B1B780133402B28BF002392
:103CA0002A4A1278D2B29A4204D0294AD154D9B2BF
:103CB000254A1170274A116869B1274A1278D2B291
:103CC00093422EBFC2EB0303C2F140029B18272B85
:103CD000C4BF01230B701B4BDB78DBB213F0800FEA
:103CE0001CD0184A127912F0800F17D01B4A117895
:103CF000C9B2194A1278D2B2914203D16C21114A49
:103D0000D1700BE00132282A28BF00221449885CB8
:103D1000C0B20C49C871D2B20F490A7013F0400FFB
:103D20000ED0084B1B7913F0400F09D000220D4B29
:103D30001A700D4B1B6803B11A702C22014BDA70FC
:103D4000704700BF00C00640DC94FF1F7194FF1F46
:103D50009C94FF1F6C94FF1FDD94FF1FE494FF1FD2
:103D60007494FF1F7094FF1FE094FF1F00B585B08F
:103D700072B61B4B70221A7041211A4A11700F2122
:103D8000013A117080221A701A46137813F0800FCE
:103D9000FBD0154B186862B6144B98429CBF00EBE1
:103DA0008000400001A90A22FEF744FF9DF804307C
:103DB0007BB908E001A9595C31B19180023201332D
:103DC0000A2BF7D100E0002301335B00084A13708F
:103DD00003E0074A53800123ECE705B05DF804FBDC
:103DE0000000024007000240080002407F96980051
:103DF0000488FF1F08B503681B68C9B2984708BD4F
:103E000008B503681B68C9B2984708BD08B50368C0
:103E10001B68C9B2984708BD08B503681B68C9B2DA
:103E2000984708BD08B54B0803F1376000F5D83056
:103E3000B0FBF1F0FEF720FF08BD00BF10B514463F
:103E40004B0803F1376000F5D830B0FBF1F0FEF716
:103E500013FF2046FEF756FF10BD00BF08B5FEF762
:103E600081FF08BD08B50846FEF7B6FF08BD00BFD4
:103E700008B50846FEF7CCFF003018BF012008BD8A
:103E800008B50846FEF7E6FF003018BF012008BD60
:103E900008B5FFF7DFF808BD08B5FFF725F908BD3D
:103EA00008B5FFF7E7F808BD08B5FFF7B1F808BD9A
:103EB00008B5FFF733F908BD08B5FFF7B9F808BD35
:103EC00008B50846FEF7F2FF012008BD08B5084610
:103ED000FEF7ECFF012008BD10B514460846114658
:103EE000FFF734F8204610BD38B50D46084601F0FE
:103EF000F9FA044628462146FFF728F8204638BD3F
:103F0000704700BF044B00221A714FF47A71996018
:103F10001A73024A1A607047E894FF1F905F00000E
:103F200008B503681B68C9B2984708BD08B503689F
:103F30001B68C9B2984708BD08B503681B68C9B2B9
:103F4000984708BD08B503681B68C9B2984708BD03
:103F500008B54B0803F1376000F5D830B0FBF1F03D
:103F6000FFF792F908BD00BF10B514464B0803F1E6
:103F7000376000F5D830B0FBF1F0FFF785F9204647
:103F8000FFF7C8F910BD00BF08B5FFF7F3F908BD8A
:103F900008B50846FFF728FA08BD00BF08B508466F
:103FA000FFF73EFA003018BF012008BD08B50846EB
:103FB000FFF758FA003018BF012008BD08B5FFF719
:103FC00047FB08BD08B5FFF78DFB08BD08B5FFF737
:103FD0004FFB08BD08B5FFF719FB08BD08B5FFF793
:103FE0009BFB08BD08B5FFF721FB08BD08B50846D7
:103FF000FFF75AFA012008BD08B50846FFF754FA42
:10400000012008BD10B5144608461146FFF79CFA7A
:10401000204610BD38B50D46084601F063FA044647
:1040200028462146FFF790FA204638BD704700BF6A
:10403000044B00221A714FF47A7199601A73024A84
:104040001A607047F894FF1FE85F000008B5036826
:104050001B68C9B2984708BD08B503681B68C9B298
:10406000984708BD08B503681B68C9B2984708BDE2
:1040700008B503681B68C9B2984708BD08B54B0866
:1040800003F1B76000F55840B0FBF1F0FFF7FAFB21
:1040900008BD00BF10B514464B0803F1B76000F52A
:1040A0005840B0FBF1F0FFF7EDFB2046FFF72CFC8A
:1040B00010BD00BF08B5FFF757FC08BD08B508469E
:1040C000FFF78CFC08BD00BF08B50846FFF7A2FC4F
:1040D000003018BF012008BD08B50846FFF7BCFC3A
:1040E000003018BF012008BD08B5FFF755FD08BD19
:1040F00008B5FFF79BFD08BD08B5FFF75DFD08BDDE
:1041000008B5FFF727FD08BD08B5FFF7A9FD08BDF5
:1041100008B5FFF72FFD08BD08B50846FFF7BEFC40
:10412000012008BD08B50846FFF7B8FC012008BD0E
:1041300010B5144608461146FFF700FD204610BD95
:1041400038B50D46084601F0CDF90446284621460B
:10415000FFF7F4FC204638BD704700BF044B002237
:104160001A714FF47A7199601A73024A1A60704793
:104170000895FF1F4060000081F0004102E000BF91
:1041800083F0004330B54FEA41044FEA430594EA17
:10419000050F08BF90EA020F1FBF54EA000C55EA52
:1041A000020C7FEA645C7FEA655C00F0E2804FEA23
:1041B0005454D4EB5555B8BF6D420CDD2C4480EA05
:1041C000020281EA030382EA000083EA010180EA35
:1041D000020281EA0303362D88BF30BD11F0004F83
:1041E0004FEA01314FF4801C4CEA113102D04042B9
:1041F00061EB410113F0004F4FEA03334CEA1333F4
:1042000002D0524263EB430394EA050F00F0A7800B
:10421000A4F10104D5F1200E0DDB02FA0EFC22FA06
:1042200005F2801841F1000103FA0EF2801843FAFA
:1042300005F359410EE0A5F120050EF1200E012AEB
:1042400003FA0EFC28BF4CF0020C43FA05F3C01829
:1042500051EBE37101F0004507D54FF0000EDCF1A2
:10426000000C7EEB00006EEB0101B1F5801F1BD34B
:10427000B1F5001F0CD349085FEA30004FEA3C0C4F
:1042800004F101044FEA445212F5800F80F09A8045
:10429000BCF1004F08BF5FEA500C50F1000041EB49
:1042A000045141EA050130BD5FEA4C0C404141EB4D
:1042B000010111F4801FA4F10104E9D191F0000F74
:1042C00004BF01460020B1FA81F308BF2033A3F1F7
:1042D0000B03B3F120020CDA0C3208DD02F1140CEE
:1042E000C2F10C0201FA0CF021FA02F10CE002F129
:1042F0001402D8BFC2F1200C01FA02F120FA0CFC22
:10430000DCBF41EA0C019040E41AA2BF01EB04516A
:10431000294330BD6FEA04041F3C1CDA0C340EDC68
:1043200004F11404C4F1200220FA04F001FA02F3AB
:1043300040EA030021FA04F345EA030130BDC4F169
:104340000C04C4F1200220FA02F001FA04F340EA5E
:104350000300294630BD21FA04F0294630BD94F00F
:10436000000F83F4801306BF81F480110134013DF6
:104370004EE77FEA645C18BF7FEA655C29D094EA67
:10438000050F08BF90EA020F05D054EA000C04BFE5
:104390001946104630BD91EA030F1EBF00210020D0
:1043A00030BD5FEA545C05D14000494128BF41F06F
:1043B000004130BD14F580043CBF01F5801130BDD3
:1043C00001F0004545F0FE4141F470014FF000005E
:1043D00030BD7FEA645C1ABF194610467FEA655C0F
:1043E0001CBF0B46024650EA013406BF52EA0335B1
:1043F00091EA030F41F4002130BD00BF90F0000F9F
:1044000004BF0021704730B54FF4806404F13204DA
:104410004FF000054FF0000150E700BF90F0000F93
:1044200004BF0021704730B54FF4806404F13204BA
:1044300010F0004548BF40424FF000013EE700BF8A
:1044400042004FEAE2014FEA31014FEA02701FBF1A
:1044500012F07F4393F07F4F81F06051704792F0EC
:10446000000F14BF93F07F4F704730B54FF4607466
:1044700001F0004521F0004120E700BF50EA0102B1
:1044800008BF704730B54FF000050AE050EA01025E
:1044900008BF704730B511F0004502D5404261EBCE
:1044A00041014FF4806404F132045FEA915C3FF40F
:1044B000DCAE4FF003025FEADC0C18BF03325FEAA8
:1044C000DC0C18BF033202EBDC02C2F1200300FA5D
:1044D00003FC20FA02F001FA03FE40EA0E0021FA82
:1044E00002F11444C1E600BF70B54FF0FF0C4CF46C
:1044F000E06C1CEA11541DBF1CEA135594EA0C0F22
:1045000095EA0C0F00F0DEF82C4481EA030621EA5C
:104510004C5123EA4C5350EA013518BF52EA033597
:1045200041F4801143F4801338D0A0FB02CE4FF049
:104530000005E1FB02E506F00042E0FB03E54FF079
:104540000006E1FB03569CF0000F18BF4EF0010E71
:10455000A4F1FF04B6F5007F64F5407404D25FEA6D
:104560004E0E6D4146EB060642EAC62141EA555120
:104570004FEAC52040EA5E504FEACE2EB4F1FD0C62
:1045800088BFBCF5E06F1ED8BEF1004F08BF5FEAE0
:10459000500E50F1000041EB045170BD06F0004692
:1045A00046EA010140EA020081EA0301B4EB5C043F
:1045B000C2BFD4EB0C0541EA045170BD41F4801137
:1045C0004FF0000E013C00F3AB8014F1360FDEBF5C
:1045D000002001F0004170BDC4F10004203C35DA38
:1045E0000C341BDC04F11404C4F1200500FA05F3BB
:1045F00020FA04F001FA05F240EA020001F000425C
:1046000021F0004110EBD37021FA04F642EB0601D1
:104610005EEA430E08BF20EAD37070BDC4F10C04FB
:10462000C4F1200500FA04F320FA05F001FA04F2BF
:1046300040EA020001F0004110EBD37041F10001AB
:104640005EEA430E08BF20EAD37070BDC4F12005B6
:1046500000FA05F24EEA020E20FA04F301FA05F21E
:1046600043EA020321FA04F001F0004121FA04F2C6
:1046700020EA020000EBD3705EEA430E08BF20EA96
:10468000D37070BD94F0000F0FD101F000464000D0
:1046900041EB010111F4801F08BF013CF7D041EA52
:1046A000060195F0000F18BF704703F00046520056
:1046B00043EB030313F4801F08BF013DF7D043EA27
:1046C0000603704794EA0C0F0CEA135518BF95EADD
:1046D0000C0F0CD050EA410618BF52EA4306D1D164
:1046E00081EA030101F000414FF0000070BD50EA83
:1046F000410606BF1046194652EA430619D094EA0D
:104700000C0F02D150EA013613D195EA0C0F05D1F6
:1047100052EA03361CBF104619460AD181EA03014A
:1047200001F0004141F0FE4141F470014FF0000002
:1047300070BD41F0FE4141F4780170BD70B54FF09D
:10474000FF0C4CF4E06C1CEA11541DBF1CEA13551D
:1047500094EA0C0F95EA0C0F00F0A7F8A4EB0504FF
:1047600081EA030E52EA03354FEA013100F08880F6
:104770004FEA03334FF0805545EA131343EA1263BF
:104780004FEA022245EA111545EA10654FEA002674
:104790000EF000419D4208BF964244F1FD0404F52D
:1047A000407402D25B084FEA3202B61A65EB030589
:1047B0005B084FEA32024FF480104FF4002CB6EB46
:1047C000020E75EB030E22BFB61A754640EA0C00C6
:1047D0005B084FEA3202B6EB020E75EB030E22BF06
:1047E000B61A754640EA5C005B084FEA3202B6EB47
:1047F000020E75EB030E22BFB61A754640EA9C0006
:104800005B084FEA3202B6EB020E75EB030E22BFD5
:10481000B61A754640EADC0055EA060E18D04FEA93
:10482000051545EA16754FEA06164FEAC30343EA33
:1048300052734FEAC2025FEA1C1CC0D111F4801F00
:104840000BD141EA00014FF000004FF0004CB6E7F9
:1048500011F4801F04BF01430020B4F1FD0C88BF98
:10486000BCF5E06F3FF6AFAEB5EB030C04BFB6EBA3
:10487000020C5FEA500C50F1000041EB045170BD96
:104880000EF0004E4EEA113114EB5C04C2BFD4EBC3
:104890000C0541EA045170BD41F480114FF0000E47
:1048A000013C90E645EA060E8DE60CEA135594EAC3
:1048B0000C0F08BF95EA0C0F3FF43BAF94EA0C0FC6
:1048C0000AD150EA01347FF434AF95EA0C0F7FF43B
:1048D00025AF104619462CE795EA0C0F06D152EA8F
:1048E00003353FF4FDAE1046194622E750EA410673
:1048F00018BF52EA43067FF4C5AE50EA41047FF484
:104900000DAF52EA43057FF4EBAE12E74FF0FF3CE8
:1049100006E000BF4FF0010C02E000BF4FF0010CB9
:104920004DF804CD4FEA410C7FEA6C5C4FEA430C32
:1049300018BF7FEA6C5C1BD001B050EA410C0CBF81
:1049400052EA430C91EA030F02BF90EA020F0020E3
:10495000704710F1000F91EA030F58BF994208BF4A
:1049600090422CBFD8176FEAE37040F00100704707
:104970004FEA410C7FEA6C5C02D150EA013C07D15E
:104980004FEA430C7FEA6C5CD6D152EA033CD3D0A9
:104990005DF8040B704700BF8446104662468C46A3
:1049A0001946634600E000BF01B5FFF7B7FF0028D6
:1049B00048BF10F1000F01BD4DF808EDFFF7F4FFFF
:1049C0000CBF012000205DF808FB00BF4DF808ED8A
:1049D000FFF7EAFF34BF012000205DF808FB00BFAD
:1049E0004DF808EDFFF7E0FF94BF012000205DF8CF
:1049F00008FB00BF4DF808EDFFF7CEFF94BF012084
:104A000000205DF808FB00BF4DF808EDFFF7C4FF7C
:104A100034BF012000205DF808FB00BF4A0011D21E
:104A200012F5001211D20DD56FF47873B3EB625208
:104A30000ED44FEAC12343F0004343EA505323FA14
:104A400002F070474FF00000704750EA013002D189
:104A50004FF0FF3070474FF00000704780F000408B
:104A600002E000BF81F0004142001FBF5FEA410346
:104A700092EA030F7FEA226C7FEA236C6AD04FEA46
:104A80001262D2EB1363C1BFD2184140484041408B
:104A9000B8BF5B42192B88BF704710F0004F40F43D
:104AA000000020F07F4018BF404211F0004F41F459
:104AB000000121F07F4118BF494292EA030F3FD025
:104AC000A2F1010241FA03FC10EB0C00C3F1200338
:104AD00001FA03F100F0004302D5494260EB4000C7
:104AE000B0F5000F13D3B0F1807F06D340084FEA32
:104AF000310102F10102FE2A51D2B1F1004F40EB27
:104B0000C25008BF20F0010040EA0300704749008E
:104B100040EB000010F4000FA2F10102EDD1B0FA59
:104B200080FCACF1080CB2EB0C0200FA0CF0AABF4E
:104B300000EBC25052421843BCBFD04018437047EC
:104B400092F0000F81F4000106BF80F400000132F2
:104B5000013BB5E74FEA41037FEA226C18BF7FEAC9
:104B6000236C21D092EA030F04D092F0000F08BF0B
:104B70000846704790EA010F1CBF0020704712F0F2
:104B80007F4F04D1400028BF40F00040704712F131
:104B900000723CBF00F50000704700F0004343F096
:104BA000FE4040F4000070477FEA226216BF0846CC
:104BB0007FEA23630146420206BF5FEA412390EA8F
:104BC000010F40F4800070474FF0000304E000BF85
:104BD00010F0004348BF40425FEA000C08BF704736
:104BE00043F0964301464FF000001CE050EA0102FA
:104BF00008BF70474FF000030AE000BF50EA01020F
:104C000008BF704711F0004302D5404261EB4101FB
:104C10005FEA010C02BF84460146002043F0B64320
:104C200008BFA3F18053A3F50003BCFA8CF2083A45
:104C3000A3EBC25310DB01FA02FC634400FA02FC4E
:104C4000C2F12002BCF1004F20FA02F243EB020055
:104C500008BF20F00100704702F1200201FA02FCB7
:104C6000C2F1200250EA4C0021FA02F243EB0200AA
:104C700008BF20EADC7070474FF0FF0C1CEAD052EE
:104C80001EBF1CEAD15392EA0C0F93EA0C0F6FD0AF
:104C90001A4480EA010C400218BF5FEA41211ED08D
:104CA0004FF0006343EA501043EA5111A0FB013179
:104CB0000CF00040B1F5000F3EBF490041EAD3714E
:104CC0005B0040EA010062F17F02FD2A1DD8B3F1CA
:104CD000004F40EBC25008BF20F00100704790F039
:104CE000000F0CF0004C08BF49024CEA502040EA8B
:104CF00051207F3AC2BFD2F1FF0340EAC250704751
:104D000040F400004FF00003013A5DDC12F1190F8E
:104D1000DCBF00F000407047C2F10002410021FA00
:104D200002F1C2F1200200FA02FC5FEA310040F118
:104D3000000053EA4C0308BF20EADC70704792F091
:104D4000000F00F0004C02BF400010F4000F013AC9
:104D5000F9D040EA0C0093F0000F01F0004C02BFC4
:104D6000490011F4000F013BF9D041EA0C018FE733
:104D70000CEAD15392EA0C0F18BF93EA0C0F0AD039
:104D800030F0004C18BF31F0004CD8D180EA01005F
:104D900000F00040704790F0000F17BF90F0004FF8
:104DA000084691F0000F91F0004F14D092EA0C0FDA
:104DB00001D142020FD193EA0C0F03D14B0218BF6D
:104DC000084608D180EA010000F0004040F0FE40B3
:104DD00040F40000704740F0FE4040F4400070474F
:104DE0004FF0FF0C1CEAD0521EBF1CEAD15392EACE
:104DF0000C0F93EA0C0F69D0A2EB030280EA010CBE
:104E000049024FEA402037D04FF0805343EA111156
:104E100043EA10130CF000408B4238BF5B0042F1B4
:104E20007D024FF4000C8B4224BF5B1A40EA0C0059
:104E3000B3EB510F24BFA3EB510340EA5C00B3EB8B
:104E4000910F24BFA3EB910340EA9C00B3EBD10F79
:104E500024BFA3EBD10340EADC001B0118BF5FEACB
:104E60001C1CE0D1FD2A3FF650AF8B4240EBC250F4
:104E700008BF20F0010070470CF0004C4CEA5020B5
:104E80007F32C2BFD2F1FF0340EAC250704740F404
:104E900000004FF00003013A37E792F0000F00F0F6
:104EA000004C02BF400010F4000F013AF9D040EA74
:104EB0000C0093F0000F01F0004C02BF490011F408
:104EC000000F013BF9D041EA0C0195E70CEAD15300
:104ED00092EA0C0F08D142027FF47DAF93EA0C0FE7
:104EE0007FF470AF084676E793EA0C0F04D14B02CB
:104EF0003FF44CAF08466EE730F0004C18BF31F07D
:104F0000004CCAD130F000427FF45CAF31F0004376
:104F10007FF43CAF5FE700BF00210A2200F09CBB9A
:104F200070B50F4E0F4D761BB61007D0043D002410
:104F3000013455F8043F9847A642F9D10A4E0B4D6B
:104F4000761B01F029F9B61008D0043D0024013485
:104F500055F8043F9847A642F9D170BD70BD00BF17
:104F6000A4610000A4610000C0610000A461000011
:104F7000024B0146186800F003B800BF488CFF1FC1
:104F80002DE9F04F01F10B05162D83B0064627D908
:104F900035F0070527D4A94225D8304600F08CFA11
:104FA000B5F5FC7F26D2C14F4FEAD50C07EBCC03F9
:104FB000DC689C4200F0D2816368E268A16823F05B
:104FC0000303234430465D68CA6045F001059160E3
:104FD0005D6000F073FA0834204603B0BDE8F08F3E
:104FE0001025A942D9D900240C232046336003B0F0
:104FF000BDE8F08F5FEA552C00F08A80BCF1040F09
:1050000000F260814FEA951C0CF1380C4FEA4C011C
:10501000A64F07EB8101CC68A14205D10CE0002B23
:105020007ADAE468A14207D0626822F00302531BD7
:105030000F2BF4DD0CF1FF3C0CF1010C9B4B3C6998
:1050400003F1080E744500F07E81616821F00301D0
:105050004A1B0F2A00F36481002AC3F814E0C3F846
:1050600010E06ADAB1F5007F80F03A81C90803EBFD
:10507000C1004FEAA1085A688168A1604FF0010998
:1050800009FA08F848EA0202E0605A608460CC60DD
:105090004FEAAC030120984090425BD8024206D10F
:1050A0002CF0030C400002420CF1040CFAD007EB88
:1050B000CC084446E146E3689C4207D145E1002A1A
:1050C00080F25681DB689C4200F03F81596821F0F4
:1050D00003014A1B0F2AF2DD1C46D3F80CC054F81A
:1050E000088F591945F0010942F00105C3F80490F1
:1050F0003046C8F80CC0CCF8088079613961C1F835
:105100000CE0C1F808E04D608A5000F0D7F963E781
:105110007E214FF03F0C7BE72244E3685068A16892
:1051200040F00105CB6030469960556000F0C6F94B
:105130000834204603B0BDE8F08F214430464B6868
:1051400043F001034B6000F0B9F90834204603B086
:10515000BDE8F08FBC68636823F00309A94504D358
:10516000C5EB09030F2B00F39180514B514A19688D
:105170001368013305EB010A04EB090B00F06181B0
:105180000AF5805A0AF10F0A2AF47F6A2AF00F0AF8
:1051900030465146019200F093F9B0F1FF3F80464E
:1051A000019A00F00081834500F2FA80DFF810C117
:1051B000DCF80030C3455344CCF8003000F04A819D
:1051C00012683C4901321BBFCBEB080B5B44C1F8B2
:1051D0000080CCF8003018F0070300F01381C3F111
:1051E0000802C3F5805390440833C244CAF30B0A43
:1051F000CAEB030A51463046CDF804C000F060F90E
:10520000431CDDF804C000F03581C8EB00025244B5
:1052100042F00102DCF80030C7F808805344BC4279
:10522000C8F80420CCF80030DFF894A015D0B9F10C
:105230000F0F40F2EA806168A9F10C0222F0070228
:1052400001F0010EA118052042EA0E0E0F2AC4F843
:1052500004E04860886000F21181174ABC68116858
:105260008B4288BF1360154A11688B4288BF136058
:10527000626822F003029542C5EB020301D80F2BAE
:1052800004DC304600F01AF90024A5E6621943F068
:10529000010345F0010565603046BA60536000F0D7
:1052A0000DF90834204603B0BDE8F08F4C8CFF1F89
:1052B0002095FF1F5890FF1F1C95FF1F1895FF1F7B
:1052C0002495FF1FBCF1140F61D9BCF1540F00F2FB
:1052D0008F804FEA153C0CF16E0C4FEA4C0197E6BB
:1052E0004B0A042B58D9142B00F2AE8003F15B0259
:1052F000500007EB8000DFF8BC818368834200F038
:105300008A805A6822F00302914202D29B68984236
:10531000F7D1D9687A68E160A3608C60DC60B7E699
:10532000611942F0010745F0010565603046596199
:105330001961C1F80CE0C1F808E04F608A500834E8
:1053400000F0BCF848E65A68A2E609F1010919F034
:10535000030F04F108047FF4AEAE2DE004F108035E
:105360006469A34208BF0CF1020C3FF467AE23E668
:1053700019441C464868DB6854F8082F40F00105C2
:105380004D603046D3609A6000F098F824E60CF146
:105390005B0C4FEA4C013BE68A0938325000A8E723
:1053A000BC423FF403AFBC68626822F0030262E7CC
:1053B000D8F8008098457BD11CF0030FA8F10803B2
:1053C0000CF1FF3CF4D17B6823EA00037B604000D2
:1053D00098423FF6BFAE00283FF4BCAE0342CC4635
:1053E0007FF465AE400003420CF1040CFAD05EE697
:1053F000BCF5AA7F1AD84FEAD53C0CF1770C4FEADE
:105400004C0105E64FF48053EFE60123C8F8043061
:10541000444600222FE791100120D8F8042000FA1A
:1054200001F10A43C8F80420194674E740F25453C6
:105430009C451BD84FEA954C0CF17C0C4FEA4C0173
:10544000E6E50AF1100AA3E6542B1FD80A0B6E32C8
:1054500050004EE7CBF30B0100297FF4B1AE0AEB0D
:105460000901BA6841F001015160F6E6FC214FF0F4
:105470007E0CCDE501224FF0000ACBE604F10801D5
:10548000304600F06BF9DAF80030E6E6B3F5AA7FB3
:1054900003D8CA0B773250002BE740F254529342A4
:1054A00003D88A0C7C32500023E7FC207E2220E7C0
:1054B0007B688CE74C8CFF1F704700BF704700BFB4
:1054C00038B5074C0023054608462360FDF78AFBE4
:1054D000431C00D038BD2368002BFBD02B6038BDA7
:1054E0006095FF1F20F0030110F00300C0F10000E1
:1054F00051F8043B00F1040C4FEACC0C6FF00002B1
:105500001CBF22FA0CF213434FF0010C4CEA0C2C96
:105510004CEA0C4CA3EB0C0222EA030212EACC1276
:1055200004BF51F8043B0430F4D013F0FF0F1FBF49
:10553000013013F47F4F013013F47F0F18BF013097
:10554000704700BF2DE9F00F424C82B0D4F800C084
:1055500001900E4600E02646344614F8015B0CEB41
:105560000500407800F0080000F0FF0A0028F2D1A2
:105570002D2D5BD02B2D04BF7578B41C33F010009B
:105580003CD09946BAF1000F0CBF6FF0004B4FF0C2
:10559000004BBBFBF9F8002709FB18BB38460CE0B1
:1055A000303DAB4219DD7E1C05D0404523D820D0CC
:1055B00009FB0050012714F8015B0CEB0506767817
:1055C00016F0040FECD116F0030606D0012E14BF1E
:1055D00057263726AD1BAB42E5DC7B1C15D0BAF154
:1055E000000F21D10AB1EFB9116002B0BDE8F00F90
:1055F00070475D45DCDD4FF0FF37DCE7302D1AD01A
:10560000002BBED10A239946BCE70199BAF1000FDD
:105610004FF022030CBF6FF000404FF000400B60D2
:10562000002AE2D0611EDFE74042DBE7B41C757858
:105630004FF0010AA2E7207800F0DF00582803D0DD
:10564000002B9ED108239CE71023657899460234ED
:1056500098E700BF5C90FF1F30B4044C0D46134622
:1056600001462A46206830BCFFF76CBF488CFF1FFC
:10567000024B13B1024800F005B87047000000006B
:1056800091560000014600200246034600F034B95E
:1056900038B5094D094C641BA41018BF05EB8405EF
:1056A00005D0013C55F8043D9847002CF9D1BDE8E0
:1056B000384000F085BD00BF000000000000000081
:1056C000F8B5234D0F460446FFF7F6FEAB685E685B
:1056D00026F00306F11B01F6EF7121F47F6121F042
:1056E0000F01A1F58057B7F5805F07DB2046002149
:1056F000FFF7E6FEAB683344984204D02046FFF73C
:10570000DDFE0020F8BD20467942FFF7D9FE0130CA
:105710000DD0104BAA681968F61B46F0010620460A
:10572000C91B56601960FFF7C9FE0120F8BD20466D
:105730000021FFF7C5FEAB68C21A0F2ADEDD064D59
:1057400004492D6842F00102401B5A600860D5E709
:105750004C8CFF1F2495FF1F5890FF1F2DE9F0412F
:105760000D460646002955D0FFF7A6FE55F8041C45
:10577000DFF874C121F00103A5F10804E218DCF898
:1057800008005768904227F0030769D011F0010123
:10579000576032D00021D0194068C00706D43B447E
:1057A000906800294ED0D268C260906043F0010238
:1057B0006260E350E1B9B3F5007F2DD35A0A042AA1
:1057C0006AD89809383041000CEB810C4649DCF866
:1057D0000820624566D0516821F003018B4202D255
:1057E00092689445F7D1D368E360A2609C60D4606E
:1057F0003046BDE8F041FFF761BE55F8085C641B18
:105800000CF10808A06840452B4443D0E568C5600A
:10581000A860C0E7BDE8F081DB080CEBC3020125FE
:10582000DCF804009168A1609B1005FA03F31843AB
:10583000E260CCF8040094603046CC60BDE8F041F2
:10584000FFF73CBE294DA842ADD143F00102CCF890
:105850001440CCF81040E060A0606260E350C7E7FD
:105860001F44CB0707D455F8083CE41A1F44A2682C
:10587000E368D3609A601E4B1B6847F001029F42A9
:105880006260CCF80840B3D31A4B30461968FFF772
:1058900017FFADE701217EE7142A0CD802F15B0067
:1058A000410091E74B688010012505FA00F00343A1
:1058B0004B60134698E7542A03D8180B6E3041000A
:1058C00082E7B2F5AA7F03D8D80B773041007BE797
:1058D00040F254518A4203D8980C7C30410073E75F
:1058E000FC217E2070E700BF4C8CFF1F548CFF1FF3
:1058F0005490FF1F2095FF1FF0B5274C2668D6F85F
:10590000484185B00746002C41D065681F2D1EDD3B
:10591000224818B94FF0FF3005B0F0BD4FF4C87001
:10592000039102920193FFF723FB0399029A019BD3
:1059300004460028EED0D6F848512560002060606B
:105940000546C6F84841C4F88801C4F88C013FB93F
:10595000AB1C00200135656044F8231005B0F0BD94
:1059600004EB85004FF0010CC0F88820D4F8886162
:105970000CFA05F21643022FC4F88861C0F808310A
:10598000E6D1D4F88C311A43C4F88C21E0E706F54F
:10599000A674C6F84841B8E790600000714F000057
:1059A0007B5441424C4500007C434C4541527C00B5
:1059B0007D0000007C5345547C00000054656D70F0
:1059C000657261747572650046616872656E6865BE
:1059D0006974000043656C636975730053616D7091
:1059E0006C652052617465005365636F6E6473006B
:1059F0004F4E0000506F696E747320004F46460092
:105A00005344204C6F6767696E6700005365747478
:105A1000696E672054656D705479706520746F20CD
:105A20004300000053657474696E672054656D709F
:105A30005479706520746F2046000000536574200F
:105A4000696E74657276616C206D697373696E67D7
:105A500020706172616D65746572000041766572D7
:105A60006167696E67204461746120506F696E746C
:105A700073206D697373696E6720706172616D6503
:105A8000746572005475726E696E67204F6E2041A6
:105A90007665726167696E67000000005475726E0A
:105AA000696E67204F464620417665726167696E70
:105AB000670000005475726E696E67204F4646207D
:105AC0004C6F6767696E67003000000054656D7049
:105AD00020433A20000000002054656D7020463AB3
